:100000000C942A000C9447000C9447000C94470071
:100010000C9447000C9447000C9447000C94470044
:100020000C9447000C9447000C94D3080C944700A0
:100030000C9447000C9447000C9447000C94470024
:100040000C9447000C9447000C9447000C94470014
:100050000C94470011241FBECFE5D8E0DEBFCDBF12
:1000600010E0A0E6B0E0ECEFF3E102C005900D92E5
:10007000A23EB107D9F711E0A2EEB0E001C01D9297
:10008000AA34B107E1F70E94FC080C94FC090C9417
:1000900000008091E200882359F481E08093E2001F
:1000A0001BB888E18AB986E880BD87E689B910BCAB
:1000B00008955D9BFECF8CB908955F9BFECF8CB1F8
:1000C00008958BB1807808958CB10895FC0180E08B
:1000D00006C090815D9BFECF9CB98F5F31968617DD
:1000E000C0F30895FC0121E00BC05D9BFECF9CB9DD
:1000F0005F9BFECF8CB120E0891729F421E0319677
:100100009081992391F7822F0895CF93DF939C01DB
:10011000EB01188298815F9BFECF8CB1F901E90F4A
:10012000F11D8083892F8F5F8883A82FB0E0F901AC
:10013000EA0FFB1F3197E081EE2311F0ED3051F70C
:10014000A20FB31F1C92DF91CF910895CF93DF933D
:10015000EC018091E200882311F40E94490090E0B4
:10016000FE01E90FF11DE0815D9BFECFECB99F5FC1
:10017000FE01E90FF11D8081882391F75D9BFECF81
:100180008DE08CB9DF91CF9108954F925F927F926D
:100190008F929F92AF92BF92CF92DF92EF92FF9297
:1001A0000F931F93DF93CF93CDB7DEB72B970FB687
:1001B000F894DEBF0FBECDBF762E872E982EA92EC7
:1001C000FE0131968BE0DF011D928A95E9F780E40C
:1001D000C82E82E4D82E8FE0E82EF12C0CC0C70187
:1001E000B6012AE030E040E050E00E94DA09C9019F
:1001F000DA016C017D01672D782D892D9A2DA701DB
:1002000096010E94DA09211531054105510539F39E
:10021000C114D104E104F10491F1BB242E0108942E
:10022000411C511C82010B0D111D672D782D892D4C
:100230009A2DA70196010E94DA09205DF80120831A
:10024000B394672D782D892D9A2DA70196010E94D0
:10025000DA09762E872E982EA92EC701B6012AE03C
:1002600030E040E050E00E94DA09C901DA016C0197
:100270007D01C114D104E104F104A1F602C080E3C0
:100280008983CE0101960E94A6002B960FB6F894A2
:10029000DEBF0FBECDBFCF91DF911F910F91FF90B9
:1002A000EF90DF90CF90BF90AF909F908F907F9016
:1002B0005F904F9008958091E7009091E800A091A1
:1002C000E900B091EA000196A11DB11D8093E700FD
:1002D0009093E800A093E900B093EA00089560913C
:1002E000E7007091E8008091E9009091EA0008959C
:1002F0008091E7009091E800A091E900B091EA00B8
:100300000196A11DB11D8093E3009093E400A0939A
:10031000E500B093E6000197A109B109805D97401F
:10032000A040B04008F4FFCF08958BE083BF82E087
:1003300089BF89EF8CBF0895AC01EFB78FB78F7776
:100340008FBF73B76CB792B78CE083BF88EC8CBF5C
:1003500020E030E008C008B601FEFDCF88B782601B
:1003600088BF2F5F3F4F24173507A8F392BF73BF95
:100370006CBFEFBF0895EBEEF0E0E80FF11D808158
:1003800008958091EF00843008F070C0A82FB0E08D
:10039000FD01E551FF4FE081E130B9F1E13038F086
:1003A000E23009F440C0E33009F05AC00FC0AB524C
:1003B000BF4F8C910E94B208813009F051C0E0918A
:1003C000EF00F0E0E551FF4F83E01DC0AB52BF4F9F
:1003D0008C910E94B208813041F4E091EF00F0E08E
:1003E000E051FF4F80818F5F80838091EF00E82F85
:1003F000F0E0DF01A051BF4F8C91833088F11C9257
:10040000E551FF4F81E080832BC0AB52BF4F8C91F1
:100410000E94B208882321F5E091EF00F0E0E55159
:10042000FF4F82E0F0CFAB52BF4F8C910E94B208D9
:10043000882341F4E091EF00F0E0E051FF4F80812C
:100440008F5F80838091EF00E82FF0E0DF01A05103
:10045000BF4F8C91833020F01C92E551FF4F1082EA
:100460008091EF008F5F8093EF0008951092EF006E
:10047000089580E062E00E946E0781E062E00E94E1
:100480006E0782E062E00E946E0783E062E00E94F5
:100490006E07089521E02093F7001092F40086E89B
:1004A00093E09093F6008093F5002093FB00109268
:1004B000F80089E996E09093FA008093F9008FB7ED
:1004C00080688FBF08958093FC006093FD000895BD
:1004D000482F3091FD008A3009F12091FC00832FD4
:1004E00090E0FC0154E0EE0FFF1F5A95E1F7E80F92
:1004F000F91FE20FF11DE556FF4F40832F5F209358
:10050000FC002031A8F01092FC00832F8F5F8093B5
:10051000FD00823068F01092FD0008951092FC00FA
:10052000832F8F5F8093FD00823010F01092FD00CA
:10053000089581E08093FE0008951F93CF93DF9389
:10054000EC0110E003C00E9468021F5FFE01E10F92
:10055000F11D80818823B9F7DF91CF911F91089514
:100560002BEA30E080E090E040E20BC04193E217DC
:10057000F307E1F701969F012F5E3F4F823091050F
:1005800059F0FC0164E0EE0FFF1F6A95E1F7E80FF8
:10059000F91FE556FF4FEACF1092FC001092FD00C4
:1005A00008951F93182F80910301843009F46CC0C3
:1005B000853060F4813009F446C08130A0F082308B
:1005C00009F44DC0833009F096C053C0863009F459
:1005D0007CC0863008F45CC0873009F440C08830A5
:1005E00009F089C07DC089E060E00E942F088AE0A0
:1005F00060E00E942F08612F661F6627661F87E054
:100600000E942F08612F629566956695617086E05D
:100610000E942F08612F62956695617085E00E94A7
:100620002F081295117084E0612F0E942F088BE033
:1006300061E00E942F08809103018F5F8093030186
:10064000109204015AC0809104018F5F80930401CD
:10065000863008F452C01092040182E007C08BE09B
:1006600060E00E942F08809103018F5F8093030157
:1006700044C0809104018F5F809304018630E8F1CB
:100680001092040184E0F2CF103299F185E0EECFB0
:10069000612F669566956695617087E00E942F08C8
:1006A000612F66956695617086E00E942F08612F24
:1006B0006695617085E00E942F08117084E0612FBB
:1006C0000E942F088BE061E0CCCF809104018F5F06
:1006D00080930401863088F01092040187E0C6CF31
:1006E000809104018F5F80930401863030F0109276
:1006F000040189E0BBCF1092030190E080910301D7
:10070000882309F491E0892F1F9108951F93809108
:10071000FE00823009F4A0C0833020F4813009F05B
:100720006BC107C0833009F4A1C0843009F064C1F3
:100730004DC180910201843009F458C0853058F4CD
:100740008130C9F18130D0F0823009F442C0833069
:1007500009F07AC040C0873009F457C0883038F4B7
:10076000853009F445C0863009F06EC04CC0883031
:1007700009F456C0893009F067C05BC08BE061E0C6
:100780000E946E078AE061E00E946E0789E061E0E6
:100790000E946E0787E061E00E946E0786E061E0DC
:1007A0000E946E0785E061E00E946E0784E061E0D0
:1007B0000E946E073AC0809101018F5F8093010112
:1007C000893208F443C01092010182E08093020153
:1007D0003DC080E226C0809101018F5F80930101BE
:1007E0008630A0F11092010184E0F0CF8CE219C0B4
:1007F000809101018F5F80930101843038F1109264
:10080000010186E0E3CF8CE00CC0809101018F5F95
:10081000809301018430D0F01092010188E0D6CF9E
:1008200081E00E94D102882389F0809102018F5FCC
:10083000CDCF809101018F5F809301018B3030F02B
:10084000109201018AE0C2CF109202018091020150
:10085000882309F0D1C006C081E00E94D10288231C
:1008600009F4CAC08091FE008F5FC4C03091FF00C0
:1008700020910001832F90E0FC01A4E0EE0FFF1F08
:10088000AA95E1F7E80FF91FE20FF11DE556FF4FBA
:10089000108180910501823009F449C0833030F421
:1008A000882359F0813009F07DC037C0833009F4C6
:1008B00061C0843009F076C069C089E061E00E94BF
:1008C0002F088AE060E00E942F08612F661F6627CC
:1008D000661F87E00E942F08612F629566956695D6
:1008E000617086E00E942F08612F629566956170A5
:1008F00085E00E942F081295117084E0612F0E94FC
:100900002F088BE061E00E942F08809105018F5F26
:1009100080930501109206016FC0809106018F5FE0
:1009200080930601863008F467C082E038C01092D8
:1009300006018BE060E00E942F08612F66956695A6
:100940006695617087E00E942F08612F6695669515
:10095000617086E00E942F08612F6695617085E0C6
:100960000E942F08117084E0612F0E942F088BE0F5
:1009700061E010C080E060E00E942F0880910601D5
:100980008F5F809306018630B8F106C01092060191
:100990008BE060E00E942F08809105018F5F8093BB
:1009A00005012AC010920501822F8F5F80930001FC
:1009B000803110F110920001832F8F5F8093FF0030
:1009C000823010F01092FF0084E014C0809100018A
:1009D0008F7380682091FF0030E02170307076E0E6
:1009E000220F331F7A95E1F7822B0E94D1028823D0
:1009F00019F083E08093FE001F91089520E001C06C
:100A00002F5FE22FF0E0DC01AE0FBF1FAC91E60FCD
:100A1000F71FE081AE1729F4AA2391F781E090E057
:100A20000895AA2319F080E090E0089590E0E11184
:100A300091E081E09827892F089580E160E00E948D
:100A40002F080895EF92FF921F93CF93DF937C01BD
:100A5000EB01188218810E945D00F701E10FF11D82
:100A600080831F5F1883A12FB0E0F701EA0FFB1FFF
:100A70003197E081EE2321F0EA3011F0EE3351F7A7
:100A8000AE0DBF1D1C92DF91CF911F91FF90EF9093
:100A90000895EF92FF921F93CF93DF937C0121E0A3
:100AA00010E016C00E94590088818A3159F00E94D6
:100AB0005D0020E09881891709F421E01F5F22235F
:100AC00039F40CC00E945D0020E08D3039F421E043
:100AD000E701C10FD11D8881882321F7822FDF9183
:100AE000CF911F91FF90EF9008956F927F928F9218
:100AF0009F92AF92BF92CF92DF92EF92FF920F93AD
:100B00001F93DF93CF93CDB7DEB7A2970FB6F894BC
:100B1000DEBF0FBECDBF3C016B018E01015F1F4FD9
:100B200084E1F80111928A95E9F78DEB90E00E943B
:100B30004905C801BE016F5F7F4F0E942205DE019B
:100B40001596E7E6F0E08AE001900D928150E1F71A
:100B5000DE011296E1E7F0E083E001900D92815012
:100B6000E1F78FE0882E912C8C0E9D1EC40168EC5D
:100B700070E00E94FE04A82E8823C9F1CE010596DC
:100B80000E944905F82EC6010E944905B82ECE01E3
:100B900002960E944905C82EC4018E010F5F1F4FA7
:100BA000B8010E942205C40160E670E00E94FE04C4
:100BB000D82EC3010E944905E82E8AE10E945900FF
:100BC000C401B8010E942205C401B8010E94220597
:100BD000C401B8010E942205C40162E670E00E94CF
:100BE000FE04FB20AF20AC20AD20AE20A8228A2D31
:100BF000A2960FB6F894DEBF0FBECDBFCF91DF91A6
:100C00001F910F91FF90EF90DF90CF90BF90AF902A
:100C10009F908F907F906F9008950F931F93DF9315
:100C2000CF93CDB7DEB72B970FB6F894DEBF0FBECC
:100C3000CDBFFE0132968AE0DF011D928A95E9F769
:100C400019820E946D0780E161E00E946E070E9498
:100C5000490088E161E00E946E0789E162E00E943C
:100C60006E078DEC90E00E9449058823D1F38E0138
:100C70000E5F1F4FC801BE016F5F7F4F0E942205AC
:100C800088EC90E0B8010E94FE042B960FB6F89411
:100C9000DEBF0FBECDBFCF91DF911F910F910895A1
:100CA000AC0180910701833019F482E08093070141
:100CB000DA01EAE0F1E08BE201900D928150E1F778
:100CC000CA010895AC0120E030E0FA01E20FF31F01
:100CD000D901A65FBE4F8C9180832F5F3F4F2F308D
:100CE000310599F7809134010895E9E1F1E0DC01E3
:100CF00081918D9381E0E632F807D1F786850895DA
:100D0000E9E1F1E0DC0181918D9381E0E732F807C0
:100D1000D1F7858508958091070108951092070104
:100D2000089580E161E00E942F0808950E945D000F
:100D300008950E946100882309F4A2C00E94640003
:100D4000282F80910701823008F09AC09091090104
:100D50009330B1F1943030F4913069F0923009F071
:100D600077C020C0953009F44CC09530D0F1963052
:100D700009F06EC05CC0809108012C3269F4E82F44
:100D8000F0E0E65FFE4F108282E08093090110924E
:100D90000801909307010895E82FF0E0E65FFE4F09
:100DA000208341C0809108012C32A9F4E82FF0E0A3
:100DB000E65FFE4F27878F5F8093080183E01EC0A8
:100DC000809108012C3239F4E82FF0E0E65FFE4F05
:100DD000178684E020C0E82FF0E0E65FFE4F27870B
:100DE00022C0809108012C32C9F4E82FF0E0E65FC0
:100DF000FE4F248F8F5F8093080185E08093090167
:100E00000895809108012C3249F4E82FF0E0E65F64
:100E1000FE4F148E86E08093090128C0E82FF0E091
:100E2000E65FFE4F248F8F5F8093080108952C3278
:100E300031F41092090183E08093070117C01092EA
:100E4000340121532230E0F481E08093340108958D
:100E500090910801973068F4E92FF0E0E752FF4FD6
:100E600080819F5F90930801281751F0109208012C
:100E7000089520930A0181E080930801809309017D
:100E800008950F931F93182F092F1092070102C086
:100E90000E949906809107018330D1F7812F902F0E
:100EA0009C01D901EAE0F1E08BE201900D928150C2
:100EB000E1F7812F902F1F910F91089580E161E05C
:100EC0000E946E0788E161E00E946E0789E162E09E
:100ED0000E946E070E94490008950895562F80329F
:100EE00008F0BBC0633008F0B8C0982F969596956F
:100EF0009695913099F1913038F0923009F458C0BC
:100F0000933009F0AAC07EC0682F70E067707070DF
:100F100021E030E0062E02C0220F331F0A94E2F7D0
:100F200020954AB34223852F90E081709070062E61
:100F300002C0880F991F0A94E2F7482B4ABB4BB3B3
:100F40005695852F90E08170907002C0880F991F90
:100F50006A95E2F72423282B2BBB7DC0682F70E015
:100F60006770707021E030E0062E02C0220F331F40
:100F70000A94E2F7209547B34223852F90E08170D1
:100F80009070062E02C0880F991F0A94E2F7482B32
:100F900047BB48B35695852F90E08170907002C092
:100FA000880F991F6A95E2F72423282B28BB53C08A
:100FB000682F70E06770707021E030E0062E02C08C
:100FC000220F331F0A94E2F7209544B34223852F62
:100FD00090E081709070062E02C0880F991F0A94CD
:100FE000E2F7482B44BB45B35695852F90E08170BE
:100FF000907002C0880F991F6A95E2F72423282B6E
:1010000025BB29C0682F70E06770707021E030E068
:10101000062E02C0220F331F0A94E2F7209541B337
:101020004223852F90E081709070062E02C0880FB9
:10103000991F0A94E2F7482B41BB42B35695852F7E
:1010400090E08170907002C0880F991F6A95E2F756
:101050002423282B22BB81E0089580E0089580326C
:1010600008F07EC0623008F07BC0282F26952695B8
:101070002695213019F1213030F02230D1F1233082
:1010800009F06EC051C0482F50E0477050708BB3CC
:1010900021E030E0042E02C0220F331F0A94E2F751
:1010A00020952823862F90E08170907002C0880FD1
:1010B000991F4A95E2F7282B2BBB50C0482F50E0D0
:1010C0004770507088B321E030E0042E02C0220F38
:1010D000331F0A94E2F720952823862F90E0817031
:1010E000907002C0880F991F4A95E2F7282B28BB01
:1010F00035C0482F50E04770507085B321E030E094
:10110000042E02C0220F331F0A94E2F720952823F1
:10111000862F90E08170907002C0880F991F4A95C9
:10112000E2F7282B25BB1AC0482F50E047705070BB
:1011300082B321E030E0042E02C0220F331F0A9454
:10114000E2F720952823862F90E08170907002C0EE
:10115000880F991F4A95E2F7282B22BB81E008955A
:1011600080E00895282F8032E0F486958695869554
:10117000813049F0813028F0823039F0833089F4B1
:1011800006C089B305C086B303C083B301C080B372
:1011900090E0277002C0959587952A95E2F78170B7
:1011A000089582E008951F920F920FB60F921124B6
:1011B0002F933F934F935F936F937F938F939F935F
:1011C000AF93BF93EF93FF930E945B01E091D10037
:1011D000F091D2000995FF91EF91BF91AF919F914E
:1011E0008F917F916F915F914F913F912F910F90D0
:1011F0000FBE0F901F901895AF92BF92CF92DF92C3
:10120000EF92FF920F931F93DF93CF93CDB7DEB78B
:10121000C655D0400FB6F894DEBF0FBECDBF84E6F2
:1012200090E00E949C010E9499020E9495018FB754
:1012300080688FBF80E161E00E946E0780E161E01D
:101240000E942F080E945E0780E160E00E942F0844
:101250000E940D068823E1F380E161E00E942F08DF
:1012600082E60E9468028E01045D1F4FC8010E9441
:101270004107DE011196F8018BE201900D92815039
:10128000E1F783E60E9468027E010894E11CF11CEC
:10129000C7010E949D0280E160E00E942F0884E661
:1012A0000E9468020E9496068E01005F1F4FC801CF
:1012B00064E770E00E94750585E60E9468020E945E
:1012C0009F098CE2C82ED12CCC0EDD1E570178016F
:1012D0008E01035E1F4F2EC00E948B06833051F596
:1012E000C6010E945006D501F6018BE201900D92D5
:1012F0008150E1F78BA58823A9F00E94B00282E813
:1013000090E00E949D02C7010E949D0280E061E082
:101310000E94630288E890E00E949D02C8010E943A
:101320009D0208C00E94B0028DE890E00E949D02DC
:101330000E948E060E948B06833071F6FFCF80E6F6
:1013400087B987E886B980B780BF089597B18F7154
:10135000892B87B90895369A089586B18295817050
:10136000089584B1829586958695837090E025B125
:10137000349A30E0220F331F220F331F282B392BD2
:10138000C901089597B18F71892B87B9369A349B1B
:10139000FECF84B1829586958695837090E025B1C5
:1013A000349A30E0220F331F220F331F282B392BA2
:1013B000C9010895A1E21A2EAA1BBB1BFD010DC095
:1013C000AA1FBB1FEE1FFF1FA217B307E407F507F5
:1013D00020F0A21BB30BE40BF50B661F771F881FD1
:1013E000991F1A9469F760957095809590959B0167
:0C13F000AC01BD01CF010895F894FFCFBF
:1013FC003E004F4B0D0A0041542B434D47533D22A9
:10140C0000220D002B32303135353331333038304A
:10141C0034004C41543A20004C4F4E3A004E6F2051
:10142C0056616C6964204461746100202020202086
:10143C0020202020202020202020200020202020C0
:10144C002020202020202020202020200041542B50
:10145C00434D47463D310D004F4B0D0A0041540D95
:10146C000086039906000102032447504747412C8C
:02147C0000006E
:00000001FF
