:100000000C942A000C9447000C9447000C94470071
:100010000C9447000C9447000C9447000C94470044
:100020000C9447000C9447000C9489140C944700DE
:100030000C9447000C9447000C9447000C94470024
:100040000C9447000C9447000C9447000C94470014
:100050000C94470011241FBECFE5D8E0DEBFCDBF12
:1000600011E0A0E6B0E0EEE7FBE202C005900D92E1
:10007000A633B107D9F711E0A6E3B1E001C01D92A4
:10008000AD39B107E1F70E94C0110C94BD150C9475
:100090000000DF93CF9300D0CDB7DEB7809136015B
:1000A0008823F1F481E08093360187E690E09A831B
:1000B0008983EBE2F0E01082EAE2F0E088E18083FD
:1000C000E0E4F0E086E88083E9E2F0E08981808383
:1000D000E0E4F0E089819A81892F99278F708083ED
:1000E0000F900F90CF91DF910895DF93CF930F92F0
:1000F000CDB7DEB78983EBE2F0E08081882F90E016
:10010000807290700097B9F3ECE2F0E0898180830F
:100110000F90CF91DF910895DF93CF93CDB7DEB7E6
:10012000EBE2F0E080818823DCF7ECE2F0E0808114
:10013000CF91DF910895DF93CF93CDB7DEB7EBE298
:10014000F0E080818078CF91DF910895DF93CF93A5
:10015000CDB7DEB7ECE2F0E08081CF91DF9108957A
:10016000DF93CF9300D000D0CDB7DEB79B838A83D7
:100170006C8319820EC08981282F30E08A819B818F
:10018000FC01E20FF31F80810E94750089818F5F5F
:10019000898399818C81981770F30F900F900F903D
:1001A0000F90CF91DF910895DF93CF9300D00F92FE
:1001B000CDB7DEB79B838A8381E0898315C0EA814E
:1001C000FB8180810E9475000E948C00982FEA813B
:1001D000FB8180811982981711F481E089838A81DB
:1001E0009B8101969B838A838981882329F0EA81F8
:1001F000FB818081882319F789810F900F900F90E0
:10020000CF91DF910895FF920F931F93DF93CF93C8
:1002100000D000D0CDB7DEB79A8389837C836B830F
:10022000EB81FC811082EB81FC81F0802F2D30E08E
:1002300089819A818C01020F131F0E948C00F801A2
:1002400080838F2D8F5FEB81FC818083EB81FC812C
:100250008081882F90E09C012150304089819A81D3
:10026000FC01E20FF31F8081882381F0EB81FC8188
:100270008081882F90E09C012150304089819A81B3
:10028000FC01E20FF31F80818D3069F6EB81FC8168
:100290008081282F30E089819A81FC01E20FF31FD1
:1002A00010820F900F900F900F90CF91DF911F91C0
:1002B0000F91FF900895DF93CF9300D00F92CDB7A9
:1002C000DEB79B838A83198280913601882311F4DB
:1002D0000E9449008981282F30E08A819B81FC019E
:1002E000E20FF31F80810E94750089818F5F8983EF
:1002F0008981282F30E08A819B81FC01E20FF31F66
:100300008081882339F78DE00E9475000F900F904F
:100310000F90CF91DF9108950F931F93DF93CF93A9
:10032000CDB7DEB764970FB6F894DEBF0FBECDBF72
:10033000698B7A8B8B8B9C8B8BE0FE013696DF0171
:10034000982F1D929A95E9F71D8280E492E4AFE020
:10035000B0E089839A83AB83BC8312C089819A8180
:10036000AB81BC812AE030E040E050E0BC01CD012F
:100370000E949B15DA01C90189839A83AB83BC83F0
:1003800089899A89AB89BC8929813A814B815C81B1
:10039000BC01CD010E949B15DA01C9010097A1059E
:1003A000B105E1F289819A81AB81BC810097A105F9
:1003B000B10509F44BC040C08D81082F10E0898938
:1003C0009A89AB89BC8929813A814B815C81BC01C6
:1003D000CD010E949B15DA01C901282F205DCE01B5
:1003E0000696FC01E00FF11F20838D818F5F8D83C6
:1003F00089899A89AB89BC8929813A814B815C8141
:10040000BC01CD010E949B15DC01CB01898B9A8B2D
:10041000AB8BBC8B89819A81AB81BC812AE030E0B7
:1004200040E050E0BC01CD010E949B15DA01C901FA
:1004300089839A83AB83BC8389819A81AB81BC8198
:100440000097A105B10509F0B7CF0DC08D81282F08
:1004500030E0CE010696FC01E20FF31F80E38083BB
:100460008D818F5F8D83CE0106960E945B0164961D
:100470000FB6F894DEBF0FBECDBFCF91DF911F91B5
:100480000F910895DF93CF93CDB7DEB780913701F9
:1004900090913801A0913901B0913A019C01AD01D0
:1004A0000196A11DB11D8093370190933801A0934F
:1004B0003901B0933A01DA01C901BC01CD01CF91F4
:1004C000DF910895DF93CF93CDB7DEB780913701E9
:1004D00090913801A0913901B0913A01BC01CD0150
:1004E000CF91DF910895DF93CF9300D000D0CDB7A7
:1004F000DEB769837A838B839C830E946202DC016E
:10050000CB010196A11DB11D80933B0190933C014D
:10051000A0933D01B0933E010E946202DC01CB0139
:10052000803D27E0920720E0A20720E0B207A0F379
:100530000F900F900F900F90CF91DF910895DF9360
:10054000CF93CDB7DEB7E3E5F0E08BE08083E9E55C
:10055000F0E082E08083ECE5F0E089EF8083CF91EA
:10056000DF910895DF93CF93CDB7DEB728970FB60D
:10057000F894DEBF0FBECDBF98878F83EFE5F0E024
:1005800080818983AFE5B0E0EFE5F0E080818F778F
:100590008C93E3E5F0E080818C83ECE5F0E08081F2
:1005A0008B83E2E5F0E080818A83E3E5F0E08CE094
:1005B0008083ECE5F0E088EC80831E821D8216C00B
:1005C000E8E5F0E080818695882F90E0817090705A
:1005D0000097B1F3A8E5B0E0E8E5F0E08081826043
:1005E0008C938D819E8101969E838D832D813E818A
:1005F0008F8198852817390718F3E2E5F0E08A81A2
:100600008083E3E5F0E08C818083ECE5F0E08B8192
:100610008083EFE5F0E08981808328960FB6F89417
:10062000DEBF0FBECDBFCF91DF910895DF93CF9393
:10063000CDB7DEB70E94C2140E944F0E80E060E08A
:100640000E94560ECF91DF910895DF93CF9300D093
:1006500000D000D0CDB7DEB79E838D8380E00E94AE
:100660003415CC01A0E0B0E024EF31E040E050E0F0
:10067000BC01CD010E944915DC01CB012FEF33E015
:1006800040E050E0BC01CD010E949B15DA01C90198
:100690009C838B838B819C819A8389838D819E81AE
:1006A000FC01329689819A812AE030E0B9010E94EA
:1006B0007415805D808389819A812AE030E0B901D8
:1006C0000E947415CB019A8389838D819E81FC01E0
:1006D000319689819A812AE030E0B9010E9474152F
:1006E000805D808389819A812AE030E0B9010E948F
:1006F0007415CB019A83898389819A812AE030E03D
:10070000B9010E947415805DED81FE8180838B812B
:100710009C8126960FB6F894DEBF0FBECDBFCF9159
:10072000DF910895DF93CF93CDB7DEB7CF91DF91FF
:100730000895DF93CF9300D000D0CDB7DEB78B8381
:100740001A82198280914201833090F081E089837E
:100750000FC08A81882F90E0FC01E15CFE4F908100
:100760008B81981711F481E089838A818F5F8A8356
:10077000909142018A81891718F48981882349F36D
:100780008981882389F420914201822F90E0FC0125
:10079000E15CFE4F8B818083822F8F5F80934201CB
:1007A0008B8162E00E94560E1C828981882311F49D
:1007B00081E08C838C810F900F900F900F90CF91E0
:1007C000DF910895DF93CF9300D0CDB7DEB790913E
:1007D000430180914201981708F0CEC080914301F7
:1007E000882F90E0FC01E154FF4F8081282F30E0FA
:1007F0003A83298389819A818130910509F463C004
:1008000029813A81223031052CF489819A8100971F
:1008100069F0A4C029813A812230310509F46AC007
:1008200089819A8183309105C1F098C080914301FC
:10083000882F90E0FC01E15CFE4F80810E94E21075
:10084000882309F093C080914301882F90E0FC0138
:10085000E154FF4F83E0808389C080914301882F5A
:1008600090E0FC01E15CFE4F80810E94E210882351
:1008700069F480914301282F30E0F901EC5BFE4FD1
:1008800080818F5FF901EC5BFE4F80838091430193
:10089000882F90E0FC01EC5BFE4F8081833008F4F0
:1008A00065C080914301882F90E0FC01EC5BFE4F16
:1008B000108280914301882F90E0FC01E154FF4FAA
:1008C00081E0808353C080914301882F90E0FC0138
:1008D000E15CFE4F80810E94E210813009F046C049
:1008E00080914301882F90E0FC01E154FF4F82E0AA
:1008F00080833CC080914301882F90E0FC01E15C43
:10090000FE4F80810E94E210813069F480914301A2
:10091000282F30E0F901EC5BFE4F80818F5FF901F9
:10092000EC5BFE4F808380914301882F90E0FC01B7
:10093000EC5BFE4F80818330C8F080914301882FAB
:1009400090E0FC01EC5BFE4F108280914301882F08
:1009500090E0FC01E154FF4F108208C080914301F8
:10096000882F90E0FC01E154FF4F108280914301F9
:100970008F5F8093430102C0109243010F900F904C
:10098000CF91DF910895DF93CF9300D00F92CDB731
:10099000DEB78B831A8284E0898315C08A81882F11
:1009A00090E0FC01E15CFE4F90818B81981741F44F
:1009B0008A81882F90E0FC01E154FF4F8081898378
:1009C0008A818F5F8A83909142018A81891718F406
:1009D0008981843019F389810F900F900F90CF9106
:1009E000DF910895DF93CF93CDB7DEB781E0809399
:1009F0004A011092470188E598E09093490180935D
:100A0000480181E080934E0110924B018BEF9BE0F7
:100A100090934D0180934C01AFE5B0E0EFE5F0E03D
:100A2000808180688C93CF91DF910895DF93CF937D
:100A300000D000D0CDB7DEB7898380915201282F36
:100A400030E03C832B838B819C818430910509F4B9
:100A5000A4C02B813C8125303105ECF48B819C8135
:100A60008130910509F46BC02B813C812230310526
:100A70002CF48B819C81009739F1F4C02B813C814F
:100A80002230310509F46DC08B819C818330910542
:100A900009F471C0E7C02B813C812630310509F48F
:100AA000B5C08B819C81863091050CF483C02B816D
:100AB0003C812730310509F4BAC08B819C81883094
:100AC000910509F4BEC0CEC089E060E00E94F20F3B
:100AD0008AE060E00E94F20F8981982F991F992780
:100AE000991F87E0692F0E94F20F89818295869570
:100AF00086958370982F917086E0692F0E94F20F7F
:100B00008981829586958770982F917085E0692FED
:100B10000E94F20F898182958F70982F917084E0E6
:100B2000692F0E94F20F8BE061E00E94F20F80912A
:100B300052018F5F809352011092530195C08091B2
:100B400053018F5F8093530180915301863008F4E5
:100B50008BC010925301809152018F5F809352019C
:100B600083C08BE060E00E94F20F809152018F5FA2
:100B70008093520179C0809153018F5F809353011C
:100B800080915301863008F46FC010925301809118
:100B900052018F5F8093520167C08981803231F0AA
:100BA000809152018F5F809352015EC089E08093F3
:100BB00052015AC08981869586958695982F9170A5
:100BC00087E0692F0E94F20F898186958695982F7C
:100BD000917086E0692F0E94F20F89818695982F87
:100BE000917085E0692F0E94F20F8981982F917092
:100BF00084E0692F0E94F20F8BE061E00E94F20F07
:100C0000809152018F5F809352012EC080915301D9
:100C10008F5F8093530180915301863028F11092A9
:100C20005301809152018F5F809352011DC08BE070
:100C300060E00E94F20F809152018F5F8093520119
:100C400013C0809153018F5F8093530180915301B2
:100C5000863050F010925301809152018F5F809343
:100C6000520102C010925201809152011A828823CF
:100C700011F491E09A838A810F900F900F900F905A
:100C8000CF91DF910895DF93CF9300D00F92CDB72E
:100C9000DEB780915501282F30E03B832A838A817B
:100CA0009B818430910509F499C02A813B812530CC
:100CB0003105ECF48A819B818130910509F45EC095
:100CC0002A813B81223031052CF48A819B81009757
:100CD00099F1DAC02A813B812230310509F460C0E4
:100CE0008A819B818330910509F466C0CDC02A8139
:100CF0003B812730310509F49AC08A819B81883075
:100D000091056CF42A813B812530310509F472C0CC
:100D10008A819B818630910509F47EC0B5C02A8105
:100D20003B812830310509F493C08A819B81893049
:100D3000910509F498C0A8C08BE061E00E94560EAE
:100D40008AE061E00E94560E89E061E00E94560E42
:100D500087E061E00E94560E86E061E00E94560E38
:100D600085E061E00E94560E84E061E00E94560E2C
:100D7000809155018F5F8093550188C08091540107
:100D80008F5F8093540180915401893208F47EC0B2
:100D900010925401809155018F5F8093550176C068
:100DA00080E20E941605882309F470C080915501E5
:100DB0008F5F809355016AC0809154018F5F80934B
:100DC000540180915401863008F460C0109254019F
:100DD000809155018F5F8093550158C08CE20E942D
:100DE0001605882309F452C0809155018F5F8093C6
:100DF00055014CC0809154018F5F809354018091C4
:100E00005401843008F442C010925401809155017D
:100E10008F5F809355013AC08CE00E9416058823AD
:100E2000A9F1809155018F5F809355012FC080916A
:100E300054018F5F8093540180915401843030F1CC
:100E400010925401809155018F5F809355011EC00F
:100E500081E00E9416058823C9F0809155018F5FBB
:100E60008093550113C0809154018F5F809354018A
:100E7000809154018B3050F01092540180915501B3
:100E80008F5F8093550102C01092550180915501EA
:100E90001982882311F491E0998389810F900F9032
:100EA0000F90CF91DF910895DF93CF9300D000D0C2
:100EB000CDB7DEB7898380915601282F30E03C837F
:100EC0002B838B819C818230910509F468C02B8132
:100ED0003C81233031055CF48B819C810097A1F02B
:100EE0002B813C812130310509F449C0A9C08B8197
:100EF0009C818330910509F484C02B813C8124308E
:100F0000310509F491C09CC089E061E00E94F20FB4
:100F10008AE060E00E94F20F8981982F991F99273B
:100F2000991F87E0692F0E94F20F8981829586952B
:100F300086958370982F917086E0692F0E94F20F3A
:100F40008981829586958770982F917085E0692FA9
:100F50000E94F20F898182958F70982F917084E0A2
:100F6000692F0E94F20F8BE061E00E94F20F8091E6
:100F700056018F5F809356011092570166C0809191
:100F800057018F5F8093570180915701863008F495
:100F90005CC0809156018F5F8093560156C01092BD
:100FA00057018BE060E00E94F20F8981869586955B
:100FB0008695982F917087E0692F0E94F20F8981A2
:100FC00086958695982F917086E0692F0E94F20F82
:100FD00089818695982F917085E0692F0E94F20F84
:100FE0008981982F917084E0692F0E94F20F8BE025
:100FF00061E00E94F20F809156018F5F809356014D
:1010000024C080E060E00E94F20F809157018F5F62
:1010100080935701809157018630B8F08091560136
:101020008F5F8093560111C0109257018BE060E0F2
:101030000E94F20F809156018F5F8093560105C088
:101040001092560131E03A8301C01A828A810F90D2
:101050000F900F900F90CF91DF910895DF93CF9372
:1010600000D00F92CDB7DEB789836A838A81882F3B
:1010700090E08170907000249695879507949695DE
:1010800087950794982F802D982F906889818F736A
:10109000892B0E941605882319F081E08B8301C0FB
:1010A0001B828B810F900F900F90CF91DF9108954D
:1010B000DF93CF9300D0CDB7DEB780915101282FB9
:1010C00030E03A83298389819A818230910539F110
:1010D00029813A81233031055CF489819A81009716
:1010E00009F46CC029813A812130310569F066C06C
:1010F00089819A8183309105F1F029813A812430E8
:10110000310509F44FC05AC00E944306882309F4F0
:1011100055C0809151018F5F809351014FC081E094
:101120000E941605882309F449C0809151018F5F00
:101130008093510143C080915801282F30E0809165
:101140005901482F50E0C90182959295907F9827C8
:10115000807F9827820F931F840F951FFC01EE5309
:10116000FF4F80810E945407882341F180915901EB
:101170008F5F80935901809159018031F8F010926E
:101180005901809158018F5F8093580180915801D7
:10119000823010F010925801809151018F5F80933E
:1011A00051010CC08091590190915801692F0E9402
:1011B0002E08882319F083E0809351010F900F903F
:1011C000CF91DF910895DF93CF9300D0CDB7DEB7F5
:1011D00089836A83898180934F018A81809350013A
:1011E0000F900F90CF91DF910895DF93CF930F92DF
:1011F000CDB7DEB7898389818A3071F18091500142
:10120000282F30E060914F01462F50E0C9018295B0
:101210009295907F9827807F9827820F931F840F45
:10122000951FFC01EE53FF4F89818083862F8F5FCE
:1012300080934F0180914F018031D8F010924F017F
:10124000809150018F5F80935001809150018230D6
:1012500080F0109250010DC010924F01809150010A
:101260008F5F8093500180915001823010F0109276
:1012700050010F90CF91DF910895DF93CF93CDB7B9
:10128000DEB781E080935101CF91DF910895DF9324
:10129000CF9300D00F92CDB7DEB79B838A8319829C
:1012A0000EC08981282F30E08A819B81FC01E20FEA
:1012B000F31F80810E94F50889818F5F898389816E
:1012C000282F30E08A819B81FC01E20FF31F80818F
:1012D000882339F70F900F900F90CF91DF910895E9
:1012E000DF93CF9300D0CDB7DEB71A8221C0198229
:1012F00019C08A81282F30E08981482F50E0C90128
:1013000082959295907F9827807F9827820F931FD0
:10131000840F951FFC01EE53FF4F80E2808389818B
:101320008F5F89838981803120F38A818F5F8A83EF
:101330008A818230E0F210924F01109250010F909A
:101340000F90CF91DF910895DF93CF93CDB7DEB7A4
:1013500027970FB6F894DEBF0FBECDBF9B838A835D
:101360007D836C83198203C089818F5F8983898122
:10137000282F30E08A819B81FC01E20FF31F40811E
:101380008981282F30E08C819D81FC01E20FF31FC1
:101390008081481759F48981282F30E08C819D8104
:1013A000FC01E20FF31F80818823F1F68981282F49
:1013B00030E08A819B81FC01E20FF31F808188234A
:1013C00081F48981282F30E08C819D81FC01E20F1E
:1013D000F31F8081882329F481E090E09F838E832E
:1013E00002C01F821E828E8127960FB6F894DEBF40
:1013F0000FBECDBFCF91DF910895FF920F931F9342
:10140000DF93CF9300D000D0CDB7DEB79A83898326
:101410007C836B83EB81FC811082EB81FC81F0800B
:101420002F2D30E089819A818C01020F131F0E94B9
:101430008C00F80180838F2D8F5FEB81FC8180838E
:10144000EB81FC818081882F90E09C01215030400D
:1014500089819A81FC01E20FF31F8081882309F1C1
:10146000EB81FC818081882F90E09C0121503040ED
:1014700089819A81FC01E20FF31F80818A3089F013
:10148000EB81FC818081882F90E09C0121503040CD
:1014900089819A81FC01E20FF31F80818E3309F06C
:1014A000BCCFEB81FC818081282F30E089819A813B
:1014B000FC01E20FF31F10820F900F900F900F901E
:1014C000CF91DF911F910F91FF900895DF93CF93FC
:1014D00000D000D0CDB7DEB79C838B8381E08A83B8
:1014E000198234C08981282F30E08B819C81FC01D6
:1014F000E20FF31F80810E9475008981282F30E060
:101500008B819C81FC01E20FF31F90818091F80098
:101510009817A9F00E948C00482F8981282F30E06D
:101520008B819C81FC01E20FF31F80811A82481796
:1015300011F481E08A8389818F5F898307C00E94CB
:101540008C001A828D3011F481E08A838A8188238D
:1015500061F08981282F30E08B819C81FC01E20FB2
:10156000F31F8081882309F0BDCF8A810F900F90EF
:101570000F900F90CF91DF910895DF93CF93CDB768
:10158000DEB70E944F0E80E161E00E94560E0E947D
:10159000490088E161E00E94560E89E162E00E9404
:1015A000560ECF91DF910895DF93CF93CDB7DEB77D
:1015B0002B970FB6F894DEBF0FBECDBF8AE0FE01B9
:1015C0003196DF01982F1D929A95E9F71B8684EEDC
:1015D00090E00E94660A8823D1F39E01255F3F4F69
:1015E000CE010196B9010E94FD0988EE90E09E01AE
:1015F0002F5F3F4FB9010E94A4092B960FB6F894B4
:10160000DEBF0FBECDBFCF91DF910895DF93CF93A3
:10161000CDB7DEB7E1970FB6F894DEBF0FBECDBFF2
:101620009DA38CA37FA36EA381E0898384E1FE0147
:101630003396DF01982F1D929A95E9F78DEE90E091
:101640000E94660A8983CE0103969E012E5F3F4F5A
:10165000B9010E94FD09DE015796B9A7A8A7E7E6E0
:10166000F0E0FBA7EAA7FAE0FCA7AAA5BBA50C90AF
:10167000EAA5FBA53196FBA7EAA7A8A5B9A50C92F8
:10168000E8A5F9A53196F9A7E8A7FCA5F150FCA7B4
:101690008CA5882351F7DE019196BEA7ADA7E1E79F
:1016A000F0E0F8ABEFA7F3E0F9ABAFA5B8A90C9069
:1016B000EFA5F8A93196F8ABEFA7ADA5BEA50C92A2
:1016C000EDA5FEA53196FEA7EDA7F9A9F150F9AB5E
:1016D00089A9882351F7CE01039628EE30E0B9019D
:1016E0000E94A40989838981882309F45AC0CE0104
:1016F00047960E94660A982F8981892389838EA143
:101700009FA10E94660A982F898189238983CE012F
:1017100081960E94660A982F898189238983CE0148
:1017200003969E012E5F3F4FB9010E94FD09CE0135
:10173000039620E630E0B9010E94A409982F898120
:10174000892389838CA19DA10E94660A982F898193
:10175000892389838091F8000E947500CE01039649
:101760009E012E5F3F4FB9010E94FD09CE010396F5
:101770009E012E5F3F4FB9010E94FD09CE010396E5
:101780009E012E5F3F4FB9010E94FD09CE010396D5
:1017900022E630E0B9010E94A409982F89818923AB
:1017A00089838981E1960FB6F894DEBF0FBECDBF65
:1017B000CF91DF910895DF93CF93CDB7DEB780E16E
:1017C00060E00E94F20FCF91DF910895DF93CF93F5
:1017D000CDB7DEB780E161E00E94560E88E161E09E
:1017E0000E94560E89E162E00E94560E0E94490056
:1017F000CF91DF910895DF93CF93CDB7DEB72797D1
:101800000FB6F894DEBF0FBECDBF0E949B008823A9
:1018100009F41EC10E94A600898380915A0182307A
:1018200008F016C180915C01282F30E03F832E83A1
:101830008E819F818330910509F467C02E813F819D
:10184000243031055CF48E819F8181309105C9F08F
:101850002E813F8122303105B1F1D3C08E819F812D
:101860008530910509F492C02E813F8125303105E4
:101870000CF46AC08E819F818630910509F4A5C061
:10188000C0C089818C3289F480915B01882F90E0FF
:10189000FC01E35AFE4F108282E080935C011092BB
:1018A0005B0181E080935A01D3C020915B01822FBC
:1018B00090E0FC01E35AFE4F89818083822F8F5F85
:1018C00080935B01C5C089818C3289F420915B01D2
:1018D000822F90E0FC01E459FE4F8CE28083822F3E
:1018E0008F5F80935B0183E080935C01B1C02091A6
:1018F0005B01822F90E0FC01E459FE4F89818083D7
:10190000822F8F5F80935B01A3C089818C3271F439
:1019100080915B01882F90E0FC01E459FE4F10821A
:1019200084E080935C0110925B0192C020915B0186
:10193000822F90E0FC01E459FE4F89818083822F41
:101940008F5F80935B0184C089818C3289F4209100
:101950005B01822F90E0FC01E758FE4F8CE2808310
:10196000822F8F5F80935B0185E080935C0170C064
:1019700020915B01822F90E0FC01E758FE4F8981A6
:101980008083822F8F5F80935B0162C089818C325C
:1019900071F480915B01882F90E0FC01E758FE4FC5
:1019A000108286E080935C0110925B0151C020910F
:1019B0005B01822F90E0FC01E758FE4F8981808314
:1019C000822F8F5F80935B0143C089818C3241F409
:1019D00010925C0183E080935A0110925B0138C041
:1019E0008981813319F08981823329F421E030E043
:1019F0003D832C8302C01D821C828C8180938701D1
:101A000027C080915B018730D0F430915B013B832C
:101A10002B81822F90E0FC01E750FF4F90811A82CA
:101A20008981981711F031E03A838B818F5F809321
:101A30005B018A81882361F010925B0109C0898172
:101A400080935D0181E080935B0181E080935C0184
:101A500027960FB6F894DEBF0FBECDBFCF91DF91B2
:101A60000895DF93CF93CDB7DEB727970FB6F894DD
:101A7000DEBF0FBECDBF9A83898380915A01833028
:101A800019F482E080935A0189819A819C838B8327
:101A9000EDE5F1E0FE83ED83FBE2FF83ED81FE8166
:101AA00000808D819E8101969E838D83EB81FC81D8
:101AB00000828B819C8101969C838B839F819150B6
:101AC0009F83EF81EE2351F789819A8127960FB684
:101AD000F894DEBF0FBECDBFCF91DF910895DF93A5
:101AE000CF9300D00F92CDB7DEB79B838A83198244
:101AF00013C08981282F30E08A819B81DC01A20FED
:101B0000B31F8981882F90E0FC01E35AFE4F80814A
:101B10008C9389818F5F898389818F3050F3809185
:101B200087010F900F900F90CF91DF910895DF9371
:101B3000CF9300D00F92CDB7DEB79B838A831982F3
:101B400013C08981282F30E08A819B81DC01A20F9C
:101B5000B31F8981882F90E0FC01E459FE4F8081FA
:101B60008C9389818F5F898389818D3050F3809137
:101B700087010F900F900F90CF91DF910895DF9321
:101B8000CF9300D00F92CDB7DEB79B838A831982A3
:101B900013C08981282F30E08A819B81DC01A20F4C
:101BA000B31F8981882F90E0FC01E459FE4F8081AA
:101BB0008C9389818F5F898389818E3050F38091E6
:101BC00087010F900F900F90CF91DF910895DF93D1
:101BD000CF93CDB7DEB780915A01CF91DF910895B1
:101BE000DF93CF93CDB7DEB710925A01CF91DF913B
:101BF0000895DF93CF93CDB7DEB729970FB6F8944A
:101C0000DEBF0FBECDBF9C838B8310925A0104C0F0
:101C10000E94FB0B1A82198280915A018330C1F70E
:101C20008B819C819E838D83EDE5F1E0F887EF83C6
:101C3000FBE2F987EF81F88500808F819885019616
:101C400098878F83ED81FE8100828D819E81019630
:101C50009E838D83998591509987E985EE2351F76D
:101C60008B819C8129960FB6F894DEBF0FBECDBF45
:101C7000CF91DF910895DF93CF93CDB7DEB70E9468
:101C80008C00CF91DF910895DF93CF93CDB7DEB76E
:101C900080E161E00E94F20FCF91DF910895DF9320
:101CA000CF93CDB7DEB7CF91DF910895DF93CF9378
:101CB00000D000D00F92CDB7DEB78A836B83198234
:101CC0008A81803208F085C18B81833008F081C120
:101CD00081E089838A81869586958695282F30E0D4
:101CE0003D832C836C817D816130710509F46EC068
:101CF0008C819D818230910534F42C813D812115A8
:101D0000310571F065C16C817D816230710509F426
:101D1000B3C08C819D818330910509F403C158C102
:101D2000AAE3B0E08A81882F90E09C012770307090
:101D300081E090E002C0880F991F2A95E2F7982F62
:101D40009095EAE3F0E08081492F48238B81882F2A
:101D500090E09C01217030708A81882F90E087701C
:101D60009070B90102C0660F771F8A95E2F7CB0128
:101D7000842B8C93ABE3B0E08A81882F90E09C01A8
:101D80002770307081E090E002C0880F991F2A957B
:101D9000E2F7982F9095EBE3F0E08081492F4823FC
:101DA0008B818695882F90E09C01217030708A810C
:101DB000882F90E087709070B90102C0660F771F7E
:101DC0008A95E2F7CB01842B8C9303C1A7E3B0E0A3
:101DD0008A81882F90E09C012770307081E090E02C
:101DE00002C0880F991F2A95E2F7982F9095E7E394
:101DF000F0E08081492F48238B81882F90E09C015F
:101E0000217030708A81882F90E087709070B901BE
:101E100002C0660F771F8A95E2F7CB01842B8C9363
:101E2000A8E3B0E08A81882F90E09C012770307091
:101E300081E090E002C0880F991F2A95E2F7982F61
:101E40009095E8E3F0E08081492F48238B818695C7
:101E5000882F90E09C01217030708A81882F90E05B
:101E600087709070B90102C0660F771F8A95E2F7FC
:101E7000CB01842B8C93ADC0A4E3B0E08A81882F82
:101E800090E09C012770307081E090E002C0880FE4
:101E9000991F2A95E2F7982F9095E4E3F0E080816E
:101EA000492F48238B81882F90E09C01217030704E
:101EB0008A81882F90E087709070B90102C0660F08
:101EC000771F8A95E2F7CB01842B8C93A5E3B0E0D2
:101ED0008A81882F90E09C012770307081E090E02B
:101EE00002C0880F991F2A95E2F7982F9095E5E395
:101EF000F0E08081492F48238B818695882F90E0E0
:101F00009C01217030708A81882F90E087709070DA
:101F1000B90102C0660F771F8A95E2F7CB01842BC7
:101F20008C9357C0A1E3B0E08A81882F90E09C0198
:101F30002770307081E090E002C0880F991F2A95C9
:101F4000E2F7982F9095E1E3F0E08081492F482354
:101F50008B81882F90E09C01217030708A81882FBE
:101F600090E087709070B90102C0660F771F8A9564
:101F7000E2F7CB01842B8C93A2E3B0E08A81882F17
:101F800090E09C012770307081E090E002C0880FE3
:101F9000991F2A95E2F7982F9095E2E3F0E080816F
:101FA000492F48238B818695882F90E09C012170D2
:101FB00030708A81882F90E087709070B90102C0DC
:101FC000660F771F8A95E2F7CB01842B8C9301C0B3
:101FD000198289810F900F900F900F900F90CF91E1
:101FE000DF910895DF93CF9300D000D00F92CDB74B
:101FF000DEB78A836B8319828A81803208F0D9C068
:102000008B81823008F0D5C081E089838A818695F2
:1020100086958695282F30E03D832C836C817D81C9
:102020006130710509F443C08C819D818230910536
:1020300034F42C813D812115310571F0B9C06C81DA
:102040007D816230710509F45DC08C819D81833092
:10205000910509F482C0ACC0ABE3B0E08A81882F5F
:1020600090E09C012770307081E090E002C0880F02
:10207000991F2A95E2F7982F9095EBE3F0E0808185
:10208000492F48238B81882F90E09C01217030706C
:102090008A81882F90E087709070B90102C0660F26
:1020A000771F8A95E2F7CB01842B8C9382C0A8E33B
:1020B000B0E08A81882F90E09C012770307081E029
:1020C00090E002C0880F991F2A95E2F7982F90950B
:1020D000E8E3F0E08081492F48238B81882F90E04E
:1020E0009C01217030708A81882F90E087709070F9
:1020F000B90102C0660F771F8A95E2F7CB01842BE6
:102100008C9357C0A5E3B0E08A81882F90E09C01B2
:102110002770307081E090E002C0880F991F2A95E7
:10212000E2F7982F9095E5E3F0E08081492F48236E
:102130008B81882F90E09C01217030708A81882FDC
:1021400090E087709070B90102C0660F771F8A9582
:10215000E2F7CB01842B8C932CC0A2E3B0E08A8100
:10216000882F90E09C012770307081E090E002C0E1
:10217000880F991F2A95E2F7982F9095E2E3F0E0F7
:102180008081492F48238B81882F90E09C0121700A
:1021900030708A81882F90E087709070B90102C0FA
:1021A000660F771F8A95E2F7CB01842B8C9301C0D1
:1021B000198289810F900F900F900F900F90CF91FF
:1021C000DF910895DF93CF9300D000D0CDB7DEB775
:1021D0008A8382E089838A81803208F076C08A818E
:1021E000869586958695282F30E03C832B834B81FE
:1021F0005C814130510559F18B819C818230910580
:1022000034F42B813C812115310569F05CC04B8190
:102210005C814230510579F18B819C81833091053D
:1022200009F43DC050C0E9E3F0E08081282F30E0A0
:102230008A81882F90E087709070A90102C055951F
:1022400047958A95E2F7CA01817089833EC0E6E32B
:10225000F0E08081282F30E08A81882F90E087701D
:102260009070A90102C0559547958A95E2F7CA0179
:10227000817089832AC0E3E3F0E08081282F30E079
:102280008A81882F90E087709070A90102C05595CF
:1022900047958A95E2F7CA018170898316C0E0E309
:1022A000F0E08081282F30E08A81882F90E08770CD
:1022B0009070A90102C0559547958A95E2F7CA0129
:1022C0008170898302C082E0898389810F900F9099
:1022D0000F900F90CF91DF910895DF93CF9300D0AF
:1022E00000D000D0CDB7DEB79C838B837E836D8317
:1022F0001A82198203C08A818F5F8A838A81282F7C
:1023000030E08B819C81FC01E20FF31F80818823E8
:1023100091F718C08A81282F30E08B819C81DC01E5
:10232000A20FB31F8981282F30E08D819E81FC018F
:10233000E20FF31F80818C938A818F5F8A8389816A
:102340008F5F89838981282F30E08D819E81FC01F8
:10235000E20FF31F80818823E9F68A81282F30E07D
:102360008B819C81FC01E20FF31F10828A812696EB
:102370000FB6F894DEBF0FBECDBFCF91DF910895A9
:102380001F93DF93CF93CDB7DEB7CA5AD0400FB6B5
:10239000F894DEBF0FBECDBF82E3FE013296DF01AF
:1023A000982F1D929A95E9F784E690E00E94B20278
:1023B0000E943D090E949F02AFE5B0E0EFE5F0E02A
:1023C000808180688C930E9416030E94E60B0E9415
:1023D000BD0A0E94DB0B0E94D40A8823E1F30E940D
:1023E000440ECE01C4960E94F90D0E94DB0B0E94A0
:1023F0003B0ECE01815A9F4F2FE2FC01DF01822F5D
:102400001D928A95E9F7DE01A15ABF4FCF56DF4FE3
:10241000B983A883C159D040CF56DF4FE881F981F5
:10242000C159D040CD56DF4FF983E883C359D0401E
:102430008EE990E0CB56DF4F99838883C559D04011
:1024400098E0C956DF4F9883C759D040CB56DF4F2D
:10245000A881B981C559D0400C90CB56DF4FE88197
:10246000F981C559D0403196CB56DF4FF983E883C7
:10247000C559D040CD56DF4FA881B981C359D0404E
:102480000C92CD56DF4FE881F981C359D040319687
:10249000CD56DF4FF983E883C359D040C956DF4F8B
:1024A000F881C759D040F150C956DF4FF883C7595A
:1024B000D040C956DF4F8881C759D040882331F6B4
:1024C00087E0CF56DF4FE881F981C159D040389677
:1024D000DF01982F1D929A95E9F7FE01E15AFF4F0F
:1024E0008091AD009091AE00A091AF00B091B0008E
:1024F0008787908BA18BB28BDE01A15ABF4FC85644
:10250000DF4FB983A883C859D040C856DF4FE88150
:10251000F981C859D0407396C656DF4FF983E883D6
:10252000CA59D04081EB90E0C456DF4F998388832D
:10253000CC59D0409AE0C256DF4F9883CE59D04054
:10254000C456DF4FA881B981CC59D0400C90C456F5
:10255000DF4FE881F981CC59D0403196C456DF4F26
:10256000F983E883CC59D040C656DF4FA881B981A2
:10257000CA59D0400C92C656DF4FE881F981CA593A
:10258000D0403196C656DF4FF983E883CA59D04010
:10259000C256DF4FF881CE59D040F150C256DF4FBE
:1025A000F883CE59D040C256DF4F8881CE59D040F3
:1025B000882331F6C856DF4FA881B981C859D04069
:1025C0005D961D921D921D921C929097FE01E15AFC
:1025D000FF4FC156DF4FF983E883CF59D040C15632
:1025E000DF4F88819981CF59D0408196CF55DF4FF9
:1025F00099838883C15AD040A1EBB0E0CD55DF4F1D
:10260000B983A883C35AD040BAE0CB55DF4FB88313
:10261000C55AD040CD55DF4FE881F981C35AD0402B
:102620000080CD55DF4F88819981C35AD0400196F3
:10263000CD55DF4F99838883C35AD040CF55DF4FA4
:10264000A881B981C15AD0400C92CF55DF4FE881A3
:10265000F981C15AD0403196CF55DF4FF983E883D5
:10266000C15AD040CB55DF4FF881C55AD040F15008
:10267000CB55DF4FF883C55AD040CB55DF4F88810B
:10268000C55AD040882331F683E0C156DF4FE88138
:10269000F981CF59D040BB96DF01982F1D929A95B2
:1026A000E9F7FE01E15AFF4F81E086A7FE01E15AFA
:1026B000FF4F16A5CE01815A9F4F81960E94970D1C
:1026C0008123FE01E15AFF4F86A7FE01E15AFF4F29
:1026D00016A5CE01815A9F4F43960E94BF0D8123BC
:1026E000FE01E15AFF4F86A7CE01815A9F4F0F96F8
:1026F0000E942503CE01029624E730E0B9010E9432
:102700006D11CE0102969E01215A3F4FB9010E94E0
:102710006D11CE0102962BE730E0B9010E946D11D8
:10272000CE0102962DE730E0B9010E946D11AE0195
:102730004E5F5F4FCE01815A9F4F9C01215F3F4FFB
:10274000CA01B9010E946D11FE01E15AFF4F86A531
:10275000882339F4CE01029623E830E0B9010E94C3
:102760006D11CE0102962BE730E0B9010E946D1188
:10277000CE01029622E930E0B9010E946D11AE014E
:102780004E5F5F4FCE01815A9F4F9C012F5D3F4F9F
:10279000CA01B9010E946D11CE0102962BE730E00B
:1027A000B9010E946D11CE01029628E930E0B9010D
:1027B0000E946D11AE014E5F5F4FCE01815A9F4F57
:1027C0009C012D5E3F4FCA01B9010E946D11CE01DF
:1027D00002962BE730E0B9010E946D11CE01815ABB
:1027E0009F4F0F960E9447090E949203CE01825785
:1027F0009F4FCA55DF4F99838883C65AD040A2E3C2
:10280000B1E0C855DF4FB983A883C85AD040B3E0C0
:10281000C655DF4FB883CA5AD040C855DF4FE8814C
:10282000F981C85AD0400080C855DF4F888199810E
:10283000C85AD0400196C855DF4F99838883C85A3B
:10284000D040CA55DF4FA881B981C65AD0400C92FA
:10285000CA55DF4FE881F981C65AD0403196CA5532
:10286000DF4FF983E883C65AD040C655DF4FF88161
:10287000CA5AD040F150C655DF4FF883CA5AD040EB
:10288000C655DF4F8881CA5AD040882331F68DE083
:102890000E9499038EE00E9499038FE00E949903A1
:1028A0001982898193E0692F0E946815892F282F4A
:1028B00030E0CE0182579F4FFC01E20FF31F908161
:1028C00089818F5F8983892F0E94C304813049F7F2
:1028D000E1E0F1E08981882F90E0019723E030E08A
:1028E000B9010E9488159C01C901880F991F820FA8
:1028F000931F9C01220F331F220F331F820F931F40
:102900009F01280F391FCE010296B9010E94060BC4
:10291000C8CF1F920F920FB60F9211242F933F939F
:102920004F935F936F937F938F939F93AF93BF93D7
:10293000EF93FF93DF93CF93CDB7DEB70E944202B0
:10294000DC01CB0181709070A070B070880F991F6E
:10295000FC01E25DFE4F0190F081E02D0995CF91E1
:10296000DF91FF91EF91BF91AF919F918F917F91F7
:102970006F915F914F913F912F910F900FBE0F90EC
:102980001F901895DF93CF93CDB7DEB7E7E2F0E065
:1029900080E68083E6E2F0E087E88083A0E5B0E0AF
:1029A000E0E5F0E080818C93CF91DF910895DF9393
:1029B000CF930F92CDB7DEB78983A7E2B0E0E7E20D
:1029C000F0E08081982F89818F71892B8C930F90F3
:1029D000CF91DF910895DF93CF93CDB7DEB7A6E215
:1029E000B0E0E6E2F0E0808180648C93CF91DF91EB
:1029F0000895DF93CF93CDB7DEB7E6E2F0E08081B4
:102A000082958F708170CF91DF910895DF93CF937E
:102A100000D0CDB7DEB7E4E2F0E080818295869504
:102A200086958370882F90E09A838983E5E2F0E0B1
:102A30008081882F90E0880F991F880F991F9C0133
:102A400089819A81822B932B9A838983A6E2B0E0B5
:102A5000E6E2F0E0808180618C9389819A810F9019
:102A60000F90CF91DF910895DF93CF930F92CDB761
:102A7000DEB7898389810E94D7140E94EB140E94DB
:102A8000F9148823E1F30E9406150F90CF91DF918E
:102A90000895629FD001739FF001829FE00DF11DA8
:102AA000649FE00DF11D929FF00D839FF00D749FC8
:102AB000F00D659FF00D9927729FB00DE11DF91F74
:102AC000639FB00DE11DF91FBD01CF0111240895D1
:102AD000991B79E004C0991F961708F0961B881F70
:102AE0007A95C9F780950895AA1BBB1B51E107C0D1
:102AF000AA1FBB1FA617B70710F0A61BB70B881F8E
:102B0000991F5A95A9F780959095BC01CD0108951C
:102B100097FB092E07260AD077FD04D0E5DF06D003
:102B200000201AF4709561957F4F0895F6F79095FF
:102B300081959F4F0895A1E21A2EAA1BBB1BFD0190
:102B40000DC0AA1FBB1FEE1FFF1FA217B307E4078C
:102B5000F50720F0A21BB30BE40BF50B661F771FE4
:102B6000881F991F1A9469F76095709580959095C4
:0E2B70009B01AC01BD01CF010895F894FFCF89
:102B7E003E004F4B0D0A0041542B434D47533D220F
:102B8E0000220D004E616D653A20000D0054656DFA
:102B9E00703A004C617374204B6E6F776E204C4F01
:102BAE0043004C41543A20004C4F4E3A20004D7297
:102BBE002E2058595A0000000000000000585858A6
:102BCE00004E4F542056616C6964000000000004F2
:102BDE000000202020202020202020202020202027
:102BEE0020200020202020202020202020202020F7
:102BFE002020200041540D004F4B0D0A0041542B54
:102C0E00434D47463D310D001A2447504747412C4E
:102C1E00002B3032303135353331333038303400EB
:102C2E002B32303132313036373436373000002BDC
:102C3E0032303132373330343133393900005808BD
:062C4E00E2030D0E0F0071
:00000001FF
