:100000000C942A000C9447000C9447000C94470071
:100010000C9447000C9447000C9447000C94470044
:100020000C9447000C9447000C943E130C9447002A
:100030000C9447000C9447000C9447000C94470024
:100040000C9447000C9447000C9447000C94470014
:100050000C94470011241FBECFE5D8E0DEBFCDBF12
:1000600011E0A0E6B0E0E0E9F8E202C005900D92F0
:10007000A038B107D9F712E0A0E8B1E001C01D92A5
:10008000A730B107E1F70E944B120C9446140C9470
:100090000000DF93CF9300D0CDB7DEB78091800111
:1000A0008823F1F481E08093800187E690E09A83D1
:1000B0008983EBE2F0E01082EAE2F0E088E18083FD
:1000C000E0E4F0E086E88083E9E2F0E08981808383
:1000D000E0E4F0E089819A81892F99278F708083ED
:1000E0000F900F90CF91DF910895DF93CF930F92F0
:1000F000CDB7DEB78983EBE2F0E08081882F90E016
:10010000807290700097B9F3ECE2F0E0898180830F
:100110000F90CF91DF910895DF93CF93CDB7DEB7E6
:10012000EBE2F0E080818823DCF7ECE2F0E0808114
:10013000CF91DF910895DF93CF93CDB7DEB7EBE298
:10014000F0E080818078CF91DF910895DF93CF93A5
:10015000CDB7DEB7ECE2F0E08081CF91DF9108957A
:10016000DF93CF9300D000D0CDB7DEB79B838A83D7
:100170006C8319820EC08981282F30E08A819B818F
:10018000FC01E20FF31F80810E94750089818F5F5F
:10019000898399818C81981770F30F900F900F903D
:1001A0000F90CF91DF910895DF93CF9300D00F92FE
:1001B000CDB7DEB79B838A8381E0898315C0EA814E
:1001C000FB8180810E9475000E948C00982FEA813B
:1001D000FB8180811982981711F481E089838A81DB
:1001E0009B8101969B838A838981882329F0EA81F8
:1001F000FB818081882319F789810F900F900F90E0
:10020000CF91DF910895FF920F931F93DF93CF93C8
:1002100000D000D0CDB7DEB79A8389837C836B830F
:10022000EB81FC811082EB81FC81F0802F2D30E08E
:1002300089819A818C01020F131F0E948C00F801A2
:1002400080838F2D8F5FEB81FC818083EB81FC812C
:100250008081882F90E09C012150304089819A81D3
:10026000FC01E20FF31F8081882381F0EB81FC8188
:100270008081882F90E09C012150304089819A81B3
:10028000FC01E20FF31F80818D3069F6EB81FC8168
:100290008081282F30E089819A81FC01E20FF31FD1
:1002A00010820F900F900F900F90CF91DF911F91C0
:1002B0000F91FF900895DF93CF9300D00F92CDB7A9
:1002C000DEB79B838A83198280918001882311F491
:1002D0000E9449008981282F30E08A819B81FC019E
:1002E000E20FF31F80810E94750089818F5F8983EF
:1002F0008981282F30E08A819B81FC01E20FF31F66
:100300008081882339F78DE00E9475000F900F904F
:100310000F90CF91DF9108950F931F93DF93CF93A9
:10032000CDB7DEB764970FB6F894DEBF0FBECDBF72
:10033000698B7A8B8B8B9C8B8BE0FE013696DF0171
:10034000982F1D929A95E9F71D8280E492E4AFE020
:10035000B0E089839A83AB83BC8312C089819A8180
:10036000AB81BC812AE030E040E050E0BC01CD012F
:100370000E942414DA01C90189839A83AB83BC8368
:1003800089899A89AB89BC8929813A814B815C81B1
:10039000BC01CD010E942414DA01C9010097A10516
:1003A000B105E1F289819A81AB81BC810097A105F9
:1003B000B10509F44BC040C08D81082F10E0898938
:1003C0009A89AB89BC8929813A814B815C81BC01C6
:1003D000CD010E942414DA01C901282F205DCE012D
:1003E0000696FC01E00FF11F20838D818F5F8D83C6
:1003F00089899A89AB89BC8929813A814B815C8141
:10040000BC01CD010E942414DC01CB01898B9A8BA5
:10041000AB8BBC8B89819A81AB81BC812AE030E0B7
:1004200040E050E0BC01CD010E942414DA01C90172
:1004300089839A83AB83BC8389819A81AB81BC8198
:100440000097A105B10509F0B7CF0DC08D81282F08
:1004500030E0CE010696FC01E20FF31F80E38083BB
:100460008D818F5F8D83CE0106960E945B0164961D
:100470000FB6F894DEBF0FBECDBFCF91DF911F91B5
:100480000F910895DF93CF93CDB7DEB780918101AF
:1004900090918201A0918301B09184019C01AD01F2
:1004A0000196A11DB11D8093810190938201A093BB
:1004B0008301B0938401DA01C901BC01CD01CF9160
:1004C000DF910895DF93CF93CDB7DEB7809181019F
:1004D00090918201A0918301B091840125E030E0E8
:1004E00040E050E0BC01CD010E942414DA01C901B2
:1004F000BC01CD01CF91DF910895DF93CF9300D060
:1005000000D0CDB7DEB769837A838B839C830E944A
:100510006202DC01CB010196A11DB11D8093850112
:1005200090938601A0938701B09388010E94620294
:10053000DC01CB01803D27E0920720E0A20720E00C
:10054000B207A0F30F900F900F900F90CF91DF9113
:100550000895DF93CF93CDB7DEB7E3E5F0E08BE00E
:100560008083E9E5F0E082E08083ECE5F0E081E380
:100570008083CF91DF910895DF93CF93CDB7DEB71E
:1005800028970FB6F894DEBF0FBECDBF98878F8334
:10059000EFE5F0E080818983AFE5B0E0EFE5F0E0E2
:1005A00080818F778C93E3E5F0E080818C83ECE5AC
:1005B000F0E080818B83E2E5F0E080818A83E3E5EF
:1005C000F0E08CE08083ECE5F0E088EC80831E8234
:1005D0001D8216C0E8E5F0E080818695882F90E0C6
:1005E000817090700097B1F3A8E5B0E0E8E5F0E025
:1005F000808182608C938D819E8101969E838D8304
:100600002D813E818F8198852817390718F3E2E5FF
:10061000F0E08A818083E3E5F0E08C818083ECE583
:10062000F0E08B818083EFE5F0E08981808328967C
:100630000FB6F894DEBF0FBECDBFCF91DF91089506
:10064000DF93CF93CDB7DEB70E946A130E94380EB6
:1006500080E060E00E943F0ECF91DF910895DF932C
:10066000CF9300D000D000D0CDB7DEB79E838D836E
:1006700080E00E94DC13CC01A0E0B0E024EF31E088
:1006800040E050E0BC01CD010E94F113DC01CB0140
:100690002FEF33E040E050E0BC01CD010E94241474
:1006A000DA01C9019C838B838B819C819A83898326
:1006B0008D819E81FC01329689819A812AE030E009
:1006C000B9010E941014805D808389819A812AE09B
:1006D00030E0B9010E941014CB019A8389838D8187
:1006E0009E81FC01319689819A812AE030E0B9012E
:1006F0000E941014805D808389819A812AE030E015
:10070000B9010E941014CB019A83898389819A814F
:100710002AE030E0B9010E941014805DED81FE8175
:1007200080838B819C8126960FB6F894DEBF0FBE26
:10073000CDBFCF91DF910895DF93CF9300D00F927B
:10074000CDB7DEB789837B836A838981882F90E068
:10075000880F991FFC01E357FE4F8A819B8191838B
:1007600080830F900F900F90CF91DF910895DF93CA
:10077000CF930F92CDB7DEB719820DC08981882F34
:1007800090E0FC01E850FF4F808162E00E943F0E44
:1007900089818F5F89838981833080F30F90CF9126
:1007A000DF910895DF93CF9300D0CDB7DEB780916E
:1007B0008901833008F0DCC080918901882F90E0A6
:1007C000FC01E550FF4F8081282F30E03A832983D8
:1007D00089819A818130910509F471C029813A811A
:1007E000223031052CF489819A81009769F0B2C0DA
:1007F00029813A812230310509F478C089819A81B2
:1008000083309105C1F0A6C080918901882F90E0C6
:10081000FC01E850FF4F80810E94CB10882309F033
:10082000A1C080918901882F90E0FC01E550FF4F25
:1008300083E0808397C080918901882F90E0FC013C
:10084000E850FF4F80810E94CB10882369F480918B
:100850008901282F30E0F901E657FE4F80818F5F34
:10086000F901E657FE4F808380918901882F90E03F
:10087000FC01E657FE4F8081833008F473C08091FD
:100880008901882F90E0FC01E657FE4F108280918D
:100890008901882F90E0FC01E550FF4F81E08083C3
:1008A00080918901882F90E0880F991FFC01E35700
:1008B000FE4F0190F081E02D81E0808353C0809154
:1008C0008901882F90E0FC01E850FF4F80810E9451
:1008D000CB10813009F046C080918901882F90E0CB
:1008E000FC01E550FF4F82E080833CC0809189018C
:1008F000882F90E0FC01E850FF4F80810E94CB10D0
:10090000813069F480918901282F30E0F901E657A0
:10091000FE4F80818F5FF901E657FE4F8083809103
:100920008901882F90E0FC01E657FE4F80818330DB
:10093000C8F080918901882F90E0FC01E657FE4FB6
:10094000108280918901882F90E0FC01E550FF4FD3
:10095000108208C080918901882F90E0FC01E55049
:10096000FF4F1082809189018F5F8093890102C0BF
:10097000109289010F900F90CF91DF910895DF932E
:10098000CF930F92CDB7DEB789838981882F90E00E
:10099000FC01E550FF4F80810F90CF91DF910895CA
:1009A000DF93CF93CDB7DEB781E0809396011092AD
:1009B000930186E398E0909395018093940181E000
:1009C00080939A011092970184EE9BE09093990195
:1009D00080939801AFE5B0E0EFE5F0E080818068BA
:1009E0008C93CF91DF910895DF93CF9300D000D007
:1009F000CDB7DEB7898380919E01282F30E03C83FC
:100A00002B838B819C818430910509F4A4C02B81B8
:100A10003C8125303105ECF48B819C81813091053E
:100A200009F46BC02B813C81223031052CF48B8181
:100A30009C81009739F1F4C02B813C812230310533
:100A400009F46DC08B819C818330910509F471C0DC
:100A5000E7C02B813C812630310509F4B5C08B817C
:100A60009C81863091050CF483C02B813C8127301A
:100A7000310509F4BAC08B819C818830910509F455
:100A8000BEC0CEC089E060E00E94DB0F8AE060E07B
:100A90000E94DB0F8981982F991F9927991F87E062
:100AA000692F0E94DB0F89818295869586958370D8
:100AB000982F917086E0692F0E94DB0F89818295C3
:100AC00086958770982F917085E0692F0E94DB0FC3
:100AD000898182958F70982F917084E0692F0E9490
:100AE000DB0F8BE061E00E94DB0F80919E018F5F46
:100AF00080939E0110929F0195C080919F018F5F0E
:100B000080939F0180919F01863008F48BC01092E2
:100B10009F0180919E018F5F80939E0183C08BE037
:100B200060E00E94DB0F80919E018F5F80939E01A9
:100B300079C080919F018F5F80939F0180919F0179
:100B4000863008F46FC010929F0180919E018F5FE4
:100B500080939E0167C08981803231F080919E012F
:100B60008F5F80939E015EC089E080939E015AC092
:100B70008981869586958695982F917087E0692F53
:100B80000E94DB0F898186958695982F917086E06B
:100B9000692F0E94DB0F89818695982F917085E0DF
:100BA000692F0E94DB0F8981982F917084E0692F53
:100BB0000E94DB0F8BE061E00E94DB0F80919E01C1
:100BC0008F5F80939E012EC080919F018F5F8093E5
:100BD0009F0180919F01863028F110929F018091A2
:100BE0009E018F5F80939E011DC08BE060E00E949C
:100BF000DB0F80919E018F5F80939E0113C08091D7
:100C00009F018F5F80939F0180919F01863050F0FC
:100C100010929F0180919E018F5F80939E0102C080
:100C200010929E0180919E011A82882311F491E016
:100C30009A838A810F900F900F900F90CF91DF9140
:100C40000895DF93CF9300D00F92CDB7DEB7809198
:100C5000A101282F30E03B832A838A819B81843045
:100C6000910509F499C02A813B8125303105ECF4C6
:100C70008A819B818130910509F45EC02A813B8184
:100C8000223031052CF48A819B81009799F1DAC0DA
:100C90002A813B812230310509F460C08A819B8121
:100CA0008330910509F466C0CDC02A813B8127308D
:100CB000310509F49AC08A819B81883091056CF4D2
:100CC0002A813B812530310509F472C08A819B81DC
:100CD0008630910509F47EC0B5C02A813B81283059
:100CE000310509F493C08A819B818930910509F40B
:100CF00098C0A8C08BE061E00E943F0E8AE061E0EE
:100D00000E943F0E89E061E00E943F0E87E061E0B3
:100D10000E943F0E86E061E00E943F0E85E061E0A8
:100D20000E943F0E84E061E00E943F0E8091A1018D
:100D30008F5F8093A10188C08091A0018F5F809315
:100D4000A0018091A001893208F47EC01092A00118
:100D50008091A1018F5F8093A10176C080E20E9403
:100D6000F404882309F470C08091A1018F5F8093FF
:100D7000A1016AC08091A0018F5F8093A001809142
:100D8000A001863008F460C01092A0018091A101FA
:100D90008F5F8093A10158C08CE20E94F4048823E5
:100DA00009F452C08091A1018F5F8093A1014CC0D2
:100DB0008091A0018F5F8093A0018091A001843079
:100DC00008F442C01092A0018091A1018F5F80932E
:100DD000A1013AC08CE00E94F4048823A9F180911B
:100DE000A1018F5F8093A1012FC08091A0018F5F2F
:100DF0008093A0018091A001843030F11092A00175
:100E00008091A1018F5F8093A1011EC081E00E94AB
:100E1000F4048823C9F08091A1018F5F8093A10120
:100E200013C08091A0018F5F8093A0018091A001E9
:100E30008B3050F01092A0018091A1018F5F8093C0
:100E4000A10102C01092A1018091A1011982882301
:100E500011F491E0998389810F900F900F90CF91B9
:100E6000DF910895DF93CF9300D000D0CDB7DEB7E8
:100E700089838091A201282F30E03C832B838B81D2
:100E80009C818230910509F468C02B813C8123301C
:100E900031055CF48B819C810097A1F02B813C8112
:100EA0002130310509F449C0A9C08B819C81833070
:100EB000910509F484C02B813C812430310509F46B
:100EC00091C09CC089E061E00E94DB0F8AE060E095
:100ED0000E94DB0F8981982F991F9927991F87E01E
:100EE000692F0E94DB0F8981829586958695837094
:100EF000982F917086E0692F0E94DB0F898182957F
:100F000086958770982F917085E0692F0E94DB0F7E
:100F1000898182958F70982F917084E0692F0E944B
:100F2000DB0F8BE061E00E94DB0F8091A2018F5FFD
:100F30008093A2011092A30166C08091A3018F5FEC
:100F40008093A3018091A301863008F45CC0809156
:100F5000A2018F5F8093A20156C01092A3018BE083
:100F600060E00E94DB0F8981869586958695982F93
:100F7000917087E0692F0E94DB0F898186958695A5
:100F8000982F917086E0692F0E94DB0F89818695EA
:100F9000982F917085E0692F0E94DB0F8981982F2F
:100FA000917084E0692F0E94DB0F8BE061E00E946A
:100FB000DB0F8091A2018F5F8093A20124C080E0AB
:100FC00060E00E94DB0F8091A3018F5F8093A301FB
:100FD0008091A3018630B8F08091A2018F5F809349
:100FE000A20111C01092A3018BE060E00E94DB0F10
:100FF0008091A2018F5F8093A20105C01092A2018F
:1010000031E03A8301C01A828A810F900F900F90CD
:101010000F90CF91DF910895DF93CF9300D00F927F
:10102000CDB7DEB789836A838A81882F90E081708B
:1010300090700024969587950794969587950794C8
:10104000982F802D982F906889818F73892B0E940B
:10105000F404882319F081E08B8301C01B828B810B
:101060000F900F900F90CF91DF910895DF93CF9362
:1010700000D0CDB7DEB780919D01282F30E03A83B4
:10108000298389819A818230910539F129813A81B8
:10109000233031055CF489819A81009709F46CC092
:1010A00029813A812130310569F066C089819A81B0
:1010B00083309105F1F029813A812430310509F41A
:1010C0004FC05AC00E942106882309F455C0809160
:1010D0009D018F5F80939D014FC081E00E94F404C9
:1010E000882309F449C080919D018F5F80939D0101
:1010F00043C08091A401282F30E08091A501482FA2
:1011000050E0C90182959295907F9827807F98271B
:10111000820F931F840F951FFC01E250FF4F8081C7
:101120000E943207882341F18091A5018F5F80934F
:10113000A5018091A5018031F8F01092A501809160
:10114000A4018F5F8093A4018091A401823010F0EC
:101150001092A40180919D018F5F80939D010CC02E
:101160008091A5019091A401692F0E940C08882309
:1011700019F083E080939D010F900F90CF91DF9144
:101180000895DF93CF9300D0CDB7DEB789836A830C
:10119000898180939B018A8180939C010F900F909D
:1011A000CF91DF910895DF93CF930F92CDB7DEB744
:1011B000898389818A3071F180919C01282F30E0E8
:1011C00060919B01462F50E0C90182959295907FD6
:1011D0009827807F9827820F931F840F951FFC010B
:1011E000E250FF4F89818083862F8F5F80939B0120
:1011F00080919B018031D8F010929B0180919C01DD
:101200008F5F80939C0180919C01823080F01092CE
:101210009C010DC010929B0180919C018F5F809377
:101220009C0180919C01823010F010929C010F90E3
:10123000CF91DF910895DF93CF93CDB7DEB781E0F3
:1012400080939D01CF91DF910895DF93CF9300D0DC
:101250000F92CDB7DEB79B838A8319820EC0898136
:10126000282F30E08A819B81FC01E20FF31F8081EF
:101270000E94D30889818F5F89838981282F30E07C
:101280008A819B81FC01E20FF31F8081882359F042
:101290008981282F30E08A819B81FC01E20FF31FB6
:1012A00080818E32E1F60F900F900F90CF91DF91F9
:1012B0000895DF93CF9300D0CDB7DEB71A8221C057
:1012C000198219C08A81282F30E08981482F50E087
:1012D000C90182959295907F9827807F9827820FE9
:1012E000931F840F951FFC01E250FF4F80E2808323
:1012F00089818F5F89838981803120F38A818F5F23
:101300008A838A818230E0F210929B0110929C01C4
:101310000F900F90CF91DF910895DF93CF93CDB7CA
:10132000DEB727970FB6F894DEBF0FBECDBF9B8305
:101330008A837D836C83198203C089818F5F89834F
:101340008981282F30E08A819B81FC01E20FF31F05
:1013500040818981282F30E08C819D81FC01E20F42
:10136000F31F8081481759F48981282F30E08C8140
:101370009D81FC01E20FF31F80818823F1F68981B2
:10138000282F30E08A819B81FC01E20FF31F8081CE
:10139000882381F48981282F30E08C819D81FC0194
:1013A000E20FF31F8081882329F481E090E09F837E
:1013B0008E8302C01F821E828E8127960FB6F894FC
:1013C000DEBF0FBECDBFCF91DF910895FF920F9387
:1013D0001F93DF93CF9300D000D0CDB7DEB79A83B1
:1013E00089837C836B83EB81FC811082EB81FC81A0
:1013F000F0802F2D30E089819A818C01020F131F1C
:101400000E948C00F80180838F2D8F5FEB81FC811F
:101410008083EB81FC818081882F90E09C012150AA
:10142000304089819A81FC01E20FF31F808188237B
:1014300009F1EB81FC818081882F90E09C01215093
:10144000304089819A81FC01E20FF31F80818A304C
:1014500089F0EB81FC818081882F90E09C012150F4
:10146000304089819A81FC01E20FF31F80818E3325
:1014700009F0BCCFEB81FC818081282F30E089818D
:101480009A81FC01E20FF31F10820F900F900F90D2
:101490000F90CF91DF911F910F91FF900895DF93EF
:1014A000CF9300D000D0CDB7DEB79C838B8381E093
:1014B0008A83198234C08981282F30E08B819C81F6
:1014C000FC01E20FF31F80810E9475008981282FA3
:1014D00030E08B819C81FC01E20FF31F90818091B1
:1014E00034019817A9F00E948C00482F8981282F79
:1014F00030E08B819C81FC01E20FF31F80811A8216
:10150000481711F481E08A8389818F5F898307C03E
:101510000E948C001A828D3011F481E08A838A81C6
:10152000882361F08981282F30E08B819C81FC0128
:10153000E20FF31F8081882309F0BDCF8A810F90CD
:101540000F900F900F90CF91DF910895DF93CF937D
:10155000CDB7DEB70E94380E80E161E00E943F0EF9
:101560000E94490088E161E00E943F0E89E162E04B
:101570000E943F0ECF91DF910895DF93CF93CDB7B7
:10158000DEB72B970FB6F894DEBF0FBECDBF8AE053
:10159000FE013196DF01982F1D929A95E9F71B867F
:1015A00080E291E00E944F0A8823D1F39E01255FDB
:1015B0003F4FCE010196B9010E94E60984E291E015
:1015C0009E012F5F3F4FB9010E948D092B960FB6E8
:1015D000F894DEBF0FBECDBFCF91DF910895DF93AA
:1015E000CF93CDB7DEB7A7970FB6F894DEBF0FBE87
:1015F000CDBF9B8F8A8F7D8F6C8F81E089838AE03E
:10160000FE013396DF01982F1D929A95E9F789E242
:1016100091E00E944F0A8983CE0103969E012E5FBE
:101620003F4FB9010E94E609DE011D96BF8FAE8FC4
:10163000E7E6F0E0F9A3E8A3FAE0FAA3A8A1B9A1CC
:101640000C90E8A1F9A13196F9A3E8A3AE8DBF8D66
:101650000C92EE8DFF8D3196FF8FEE8FFAA1F15037
:10166000FAA38AA1882351F7DE015796BCA3ABA346
:10167000E1E7F0E0FEA3EDA3F3E0FFA3ADA1BEA17F
:101680000C90EDA1FEA13196FEA3EDA3ABA1BCA1F0
:101690000C92EBA1FCA13196FCA3EBA3FFA1F150AE
:1016A000FFA38FA1882351F7CE01039624E231E0F6
:1016B000B9010E948D0989838981882309F45AC060
:1016C000CE010D960E944F0A982F89818923898324
:1016D0008C8D9D8D0E944F0A982F89818923898343
:1016E000CE0147960E944F0A982F898189238983CA
:1016F000CE0103969E012E5F3F4FB9010E94E6097D
:10170000CE01039620E630E0B9010E948D09982FA2
:101710008981892389838A8D9B8D0E944F0A982F06
:10172000898189238983809134010E947500CE01CB
:1017300003969E012E5F3F4FB9010E94E609CE013C
:1017400003969E012E5F3F4FB9010E94E609CE012C
:1017500003969E012E5F3F4FB9010E94E609CE011C
:10176000039622E630E0B9010E948D09982F898105
:10177000892389838981A7960FB6F894DEBF0FBEAF
:10178000CDBFCF91DF910895DF93CF93CDB7DEB773
:1017900080E160E00E94DB0FCF91DF910895DF933D
:1017A000CF93CDB7DEB780E161E00E943F0E88E1C4
:1017B00061E00E943F0E89E162E00E943F0E0E94BC
:1017C0004900CF91DF910895DF93CF93CDB7DEB776
:1017D00027970FB6F894DEBF0FBECDBF0E949B00C7
:1017E000882309F41EC10E94A60089838091A60166
:1017F000823008F016C18091A801282F30E03F8385
:101800002E838E819F818330910509F467C02E81DC
:101810003F81243031055CF48E819F8181309105B8
:10182000C9F02E813F8122303105B1F1D3C08E81C4
:101830009F818530910509F492C02E813F8125302A
:1018400031050CF46AC08E819F818630910509F4C0
:10185000A5C0C0C089818C3289F48091A701882FEE
:1018600090E0FC01E755FE4F108282E08093A801D2
:101870001092A70181E08093A601D3C02091A70117
:10188000822F90E0FC01E755FE4F89818083822FF3
:101890008F5F8093A701C5C089818C3289F4209124
:1018A000A701822F90E0FC01E854FE4F8CE2808378
:1018B000822F8F5F8093A70183E08093A801B1C03E
:1018C0002091A701822F90E0FC01E854FE4F89810E
:1018D0008083822F8F5F8093A701A3C089818C3280
:1018E00071F48091A701882F90E0FC01E854FE4F2D
:1018F000108284E08093A8011092A70192C02091E9
:10190000A701822F90E0FC01E854FE4F898180837B
:10191000822F8F5F8093A70184C089818C3289F4E4
:101920002091A701822F90E0FC01EB53FE4F8CE247
:101930008083822F8F5F8093A70185E08093A80129
:1019400070C02091A701822F90E0FC01EB53FE4F65
:1019500089818083822F8F5F8093A70162C08981F4
:101960008C3271F48091A701882F90E0FC01EB5339
:10197000FE4F108286E08093A8011092A70151C00B
:101980002091A701822F90E0FC01EB53FE4F89814B
:101990008083822F8F5F8093A70143C089818C321F
:1019A00041F41092A80183E08093A6011092A70150
:1019B00038C08981813319F08981823329F421E08B
:1019C00030E03D832C8302C01D821C828C81809379
:1019D000D30127C08091A7018730D0F43091A701AF
:1019E0003B832B81822F90E0FC01EB5CFE4F9081CA
:1019F0001A828981981711F031E03A838B818F5FC9
:101A00008093A7018A81882361F01092A70109C001
:101A100089818093A90181E08093A70181E080936F
:101A2000A80127960FB6F894DEBF0FBECDBFCF91A9
:101A3000DF910895DF93CF93CDB7DEB727970FB629
:101A4000F894DEBF0FBECDBF9A8389838091A60133
:101A5000833019F482E08093A60189819A819C8366
:101A60008B83E9EAF1E0FE83ED83FBE2FF83ED8106
:101A7000FE8100808D819E8101969E838D83EB8106
:101A8000FC8100828B819C8101969C838B839F814A
:101A900091509F83EF81EE2351F789819A81279698
:101AA0000FB6F894DEBF0FBECDBFCF91DF91089582
:101AB000DF93CF9300D00F92CDB7DEB79B838A839D
:101AC000198213C08981282F30E08A819B81DC0133
:101AD000A20FB31F8981882F90E0FC01E755FE4FCC
:101AE00080818C9389818F5F898389818F3050F3C6
:101AF0008091D3010F900F900F90CF91DF910895B7
:101B0000DF93CF9300D00F92CDB7DEB79B838A834C
:101B1000198213C08981282F30E08A819B81DC01E2
:101B2000A20FB31F8981882F90E0FC01E854FE4F7B
:101B300080818C9389818F5F898389818D3050F377
:101B40008091D3010F900F900F90CF91DF91089566
:101B5000DF93CF9300D00F92CDB7DEB79B838A83FC
:101B6000198213C08981282F30E08A819B81DC0192
:101B7000A20FB31F8981882F90E0FC01EB53FE4F29
:101B800080818C9389818F5F898389818E3050F326
:101B90008091D3010F900F900F90CF91DF91089516
:101BA000DF93CF93CDB7DEB78091A601CF91DF91C0
:101BB0000895DF93CF93CDB7DEB71092A601CF91F2
:101BC000DF910895DF93CF93CDB7DEB729970FB696
:101BD000F894DEBF0FBECDBF9C838B831092A6010D
:101BE00004C00E94E40B1A8219828091A6018330FE
:101BF000C1F78B819C819E838D83E9EAF1E0F887B0
:101C0000EF83FBE2F987EF81F88500808F8198856B
:101C1000019698878F83ED81FE8100828D819E8160
:101C200001969E838D83998591509987E985EE234E
:101C300051F78B819C8129960FB6F894DEBF0FBEB9
:101C4000CDBFCF91DF910895DF93CF93CDB7DEB7AE
:101C50000E948C00CF91DF910895DF93CF93CDB791
:101C6000DEB780E161E00E94DB0FCF91DF91089544
:101C7000DF93CF93CDB7DEB7CF91DF910895DF9398
:101C8000CF9300D000D00F92CDB7DEB78A836B839D
:101C900019828A81803208F085C18B81833008F0F7
:101CA00081C181E089838A81869586958695282FD2
:101CB00030E03D832C836C817D816130710509F4B6
:101CC0006EC08C819D818230910534F42C813D81E0
:101CD0002115310571F065C16C817D81623071051E
:101CE00009F4B3C08C819D818330910509F403C14F
:101CF00058C1AAE3B0E08A81882F90E09C01277048
:101D0000307081E090E002C0880F991F2A95E2F7B9
:101D1000982F9095EAE3F0E08081492F48238B814A
:101D2000882F90E09C01217030708A81882F90E08C
:101D300087709070B90102C0660F771F8A95E2F72D
:101D4000CB01842B8C93ABE3B0E08A81882F90E0A9
:101D50009C012770307081E090E002C0880F991FCD
:101D60002A95E2F7982F9095EBE3F0E08081492FD8
:101D700048238B818695882F90E09C0121703070DC
:101D80008A81882F90E087709070B90102C0660F39
:101D9000771F8A95E2F7CB01842B8C9303C1A7E3CD
:101DA000B0E08A81882F90E09C012770307081E03C
:101DB00090E002C0880F991F2A95E2F7982F90951E
:101DC000E7E3F0E08081492F48238B81882F90E062
:101DD0009C01217030708A81882F90E0877090700C
:101DE000B90102C0660F771F8A95E2F7CB01842BF9
:101DF0008C93A8E3B0E08A81882F90E09C01277043
:101E0000307081E090E002C0880F991F2A95E2F7B8
:101E1000982F9095E8E3F0E08081492F48238B814B
:101E20008695882F90E09C01217030708A81882FE0
:101E300090E087709070B90102C0660F771F8A9595
:101E4000E2F7CB01842B8C93ADC0A4E3B0E08A8190
:101E5000882F90E09C012770307081E090E002C0F4
:101E6000880F991F2A95E2F7982F9095E4E3F0E008
:101E70008081492F48238B81882F90E09C0121701D
:101E800030708A81882F90E087709070B90102C00D
:101E9000660F771F8A95E2F7CB01842B8C93A5E31D
:101EA000B0E08A81882F90E09C012770307081E03B
:101EB00090E002C0880F991F2A95E2F7982F90951D
:101EC000E5E3F0E08081492F48238B818695882FB8
:101ED00090E09C01217030708A81882F90E087709B
:101EE0009070B90102C0660F771F8A95E2F7CB01A7
:101EF000842B8C9357C0A1E3B0E08A81882F90E0B7
:101F00009C012770307081E090E002C0880F991F1B
:101F10002A95E2F7982F9095E1E3F0E08081492F30
:101F200048238B81882F90E09C01217030708A813A
:101F3000882F90E087709070B90102C0660F771FFC
:101F40008A95E2F7CB01842B8C93A2E3B0E08A81DF
:101F5000882F90E09C012770307081E090E002C0F3
:101F6000880F991F2A95E2F7982F9095E2E3F0E009
:101F70008081492F48238B818695882F90E09C0192
:101F8000217030708A81882F90E087709070B9013D
:101F900002C0660F771F8A95E2F7CB01842B8C93E2
:101FA00001C0198289810F900F900F900F900F90B0
:101FB000CF91DF910895DF93CF9300D000D00F929F
:101FC000CDB7DEB78A836B8319828A81803208F0AD
:101FD000D9C08B81823008F0D5C081E089838A81A5
:101FE000869586958695282F30E03D832C836C81DD
:101FF0007D816130710509F443C08C819D818230FF
:10200000910534F42C813D812115310571F0B9C061
:102010006C817D816230710509F45DC08C819D8188
:102020008330910509F482C0ACC0ABE3B0E08A8193
:10203000882F90E09C012770307081E090E002C012
:10204000880F991F2A95E2F7982F9095EBE3F0E01F
:102050008081492F48238B81882F90E09C0121703B
:1020600030708A81882F90E087709070B90102C02B
:10207000660F771F8A95E2F7CB01842B8C9382C081
:10208000A8E3B0E08A81882F90E09C01277030702F
:1020900081E090E002C0880F991F2A95E2F7982FFF
:1020A0009095E8E3F0E08081492F48238B81882FC9
:1020B00090E09C01217030708A81882F90E08770B9
:1020C0009070B90102C0660F771F8A95E2F7CB01C5
:1020D000842B8C9357C0A5E3B0E08A81882F90E0D1
:1020E0009C012770307081E090E002C0880F991F3A
:1020F0002A95E2F7982F9095E5E3F0E08081492F4B
:1021000048238B81882F90E09C01217030708A8158
:10211000882F90E087709070B90102C0660F771F1A
:102120008A95E2F7CB01842B8C932CC0A2E3B0E01C
:102130008A81882F90E09C012770307081E090E0C8
:1021400002C0880F991F2A95E2F7982F9095E2E335
:10215000F0E08081492F48238B81882F90E09C01FB
:10216000217030708A81882F90E087709070B9015B
:1021700002C0660F771F8A95E2F7CB01842B8C9300
:1021800001C0198289810F900F900F900F900F90CE
:10219000CF91DF910895DF93CF9300D000D0CDB7DA
:1021A000DEB78A8382E089838A81803208F076C034
:1021B0008A81869586958695282F30E03C832B83EF
:1021C0004B815C814130510559F18B819C8182307A
:1021D000910534F42B813C812115310569F05CC0F7
:1021E0004B815C814230510579F18B819C81833038
:1021F000910509F43DC050C0E9E3F0E08081282F4B
:1022000030E08A81882F90E087709070A90102C029
:10221000559547958A95E2F7CA01817089833EC03A
:10222000E6E3F0E08081282F30E08A81882F90E07B
:1022300087709070A90102C0559547958A95E2F77D
:10224000CA01817089832AC0E3E3F0E08081282FEE
:1022500030E08A81882F90E087709070A90102C0D9
:10226000559547958A95E2F7CA018170898316C012
:10227000E0E3F0E08081282F30E08A81882F90E031
:1022800087709070A90102C0559547958A95E2F72D
:10229000CA018170898302C082E0898389810F909D
:1022A0000F900F900F90CF91DF910895DF93CF9310
:1022B00000D000D000D0CDB7DEB79C838B837E8367
:1022C0006D831A82198203C08A818F5F8A838A8113
:1022D000282F30E08B819C81FC01E20FF31F80816D
:1022E000882391F718C08A81282F30E08B819C8148
:1022F000DC01A20FB31F8981282F30E08D819E81E0
:10230000FC01E20FF31F80818C938A818F5F8A83A7
:1023100089818F5F89838981282F30E08D819E811B
:10232000FC01E20FF31F80818823E9F68A81282FC0
:1023300030E08B819C81FC01E20FF31F10828A81C7
:1023400026960FB6F894DEBF0FBECDBFCF91DF91BA
:102350000895DF93CF9300D00F92CDB7DEB7898376
:102360000E94C40B0E94240E1092D40184ED91E0CF
:1023700024E730E0B9010E94561184ED91E02CE48D
:1023800031E0B9010E94561184ED91E02BE730E075
:10239000B9010E9456118981282F30E03B832A839E
:1023A0008A819B818130910509F44FC02A813B814C
:1023B0002230310509F455C08A819B81009709F0CC
:1023C0005BC08DE790E00E94250984ED91E024E850
:1023D00030E0B9010E94561184ED91E02BE531E027
:1023E000B9010E94561184ED91E02BE730E0B9016C
:1023F0000E94561184ED91E02AE830E0B9010E9474
:10240000561184ED91E02DE631E0B9010E9456119C
:1024100084ED91E02BE730E0B9010E94561184ED84
:1024200091E020E930E0B9010E94561184ED91E07D
:102430002FE531E0B9010E94561184ED91E02BE7C0
:1024400030E0B9010E94561117C086E990E00E9461
:10245000250984ED91E02DE930E0B9010E94561183
:102460000BC08FEA90E00E94250984ED91E02AEBF1
:1024700030E0B9010E94561184ED91E02DE331E086
:10248000B9010E94EF0A0E942D0E0F900F900F903D
:10249000CF91DF9108951F93DF93CF93CDB7DEB730
:1024A000C056D0400FB6F894DEBF0FBECDBF84E655
:1024B00090E00E94BC020E941B090E94A902AFE5A5
:1024C000B0E0EFE5F0E0808180688C930E9420030B
:1024D0000E94CF0B0E94A60A0E94C40B0E94BD0A54
:1024E0008823E1F30E942D0ECE0103960E94E20D97
:1024F0000E94C40B0E94240E81E080937A01109107
:102500007A018DE691E00E94800D812380937A010B
:1025100010917A018FE591E00E94A80D81238093AC
:102520007A018BE591E00E942F030E94B70383E0BC
:10253000FE01BE96DF01982F1D929A95E9F71A8247
:102540000FC08A81882F90E09E01225D3F4F280FA7
:10255000391F8A81B9010E949C038A818F5F8A8317
:102560008A81833070F30E942D0E80ED90E00E94EE
:1025700025098DE691E00E94250985ED90E00E94F5
:10258000250980E691E00E9425098AED90E00E94ED
:1025900025098BE591E00E942509CE01C1960E9494
:1025A000E20DDE0113966E96BFAFAEAF6E97FE01E1
:1025B000F196A096FFAFEEAFA097FBE2A196FFAF1A
:1025C000A197A096AEADBFADA0970C90A096EEAD32
:1025D000FFADA0973196A096FFAFEEAFA0976E9695
:1025E000AEADBFAD6E970C926E96EEADFFAD6E9731
:1025F00031966E96FFAFEEAF6E97A196FFADA197A5
:10260000F150A196FFAFA197A1968FADA197882316
:10261000C1F68DE691E00E94800D8FE591E00E9469
:10262000A80D8BE591E00E942F038DA580937A0180
:102630000E94590919821EC08981282F30E0CE01DD
:102640008E96FC01E20FF31F8081882381F088EED3
:1026500090E00E9425098981282F30E0CE018E96D6
:10266000FC01E20FF31F108289810E94A911898168
:102670008F5F898389818330F8F277CF1F920F9221
:102680000FB60F9211242F933F934F935F936F9345
:102690007F938F939F93AF93BF93EF93FF93DF93BA
:1026A000CF93CDB7DEB70E9436080E94D203CF91F8
:1026B000DF91FF91EF91BF91AF919F918F917F91AA
:1026C0006F915F914F913F912F910F900FBE0F909F
:1026D0001F901895DF93CF93CDB7DEB7E7E2F0E018
:1026E00080E68083E6E2F0E087E88083A0E5B0E062
:1026F000E0E5F0E080818C93CF91DF910895DF9346
:10270000CF930F92CDB7DEB78983A7E2B0E0E7E2BF
:10271000F0E08081982F89818F71892B8C930F90A5
:10272000CF91DF910895DF93CF93CDB7DEB7A6E2C7
:10273000B0E0E6E2F0E0808180648C93CF91DF919D
:102740000895DF93CF93CDB7DEB7E6E2F0E0808166
:1027500082958F708170CF91DF910895DF93CF9331
:1027600000D0CDB7DEB7E4E2F0E0808182958695B7
:1027700086958370882F90E09A838983E5E2F0E064
:102780008081882F90E0880F991F880F991F9C01E6
:1027900089819A81822B932B9A838983A6E2B0E068
:1027A000E6E2F0E0808180618C9389819A810F90CC
:1027B0000F90CF91DF910895DF93CF930F92CDB714
:1027C000DEB7898389810E947F130E9493130E9440
:1027D000A1138823E1F30E94AE130F90CF91DF91F4
:1027E0000895629FD001739FF001829FE00DF11D5B
:1027F000649FE00DF11D929FF00D839FF00D749F7B
:10280000F00D659FF00D9927729FB00DE11DF91F26
:10281000639FB00DE11DF91FBD01CF011124089583
:10282000AA1BBB1B51E107C0AA1FBB1FA617B707F6
:1028300010F0A61BB70B881F991F5A95A9F7809512
:102840009095BC01CD010895A1E21A2EAA1BBB1BD5
:10285000FD010DC0AA1FBB1FEE1FFF1FA217B3076C
:10286000E407F50720F0A21BB30BE40BF50B661F82
:10287000771F881F991F1A9469F760957095809546
:1028800090959B01AC01BD01CF010895F894FFCF55
:102890003E004F4B0D0A0041542B434D47533D2200
:1028A00000220D004E616D653A20000D002044416C
:1028B00054410A0054656D703A004C41543A20006E
:1028C0004C4F4E3A20002048454C500A004E65655A
:1028D00064206D6F72652054524F4F50530D00208D
:1028E00041424F5254494E470A0041626F72746927
:1028F0006E6720546865204D697373696F6E0D00B3
:102900004C41543A004C4F4E3A0054454D504552BC
:1029100041545552453A200053454E44494E4720B4
:102920004D455353414745000D0E0F040000202034
:1029300020202020202020202020202020200020B7
:1029400020202020202020202020202020202000A7
:1029500041540D004F4B0D0A0041542B434D474647
:102960003D310D001A2447504747412C002B30328F
:102970003031353533313330383034004D722E201C
:1029800058595A0000000000000000585858004EE6
:102990004F542056616C696400000000004E4F5493
:1029A0002056616C696400000000003608D2030004
:00000001FF
